{
  "_format": "hh-sol-artifact-1",
  "contractName": "NFTCollection",
  "sourceName": "contracts/NFTCollection.sol",
  "abi": [
    {
      "inputs": [],
      "stateMutability": "nonpayable",
      "type": "constructor"
    },
    {
      "anonymous": false,
      "inputs": [
        {
          "indexed": true,
          "internalType": "address",
          "name": "owner",
          "type": "address"
        },
        {
          "indexed": true,
          "internalType": "address",
          "name": "approved",
          "type": "address"
        },
        {
          "indexed": true,
          "internalType": "uint256",
          "name": "tokenId",
          "type": "uint256"
        }
      ],
      "name": "Approval",
      "type": "event"
    },
    {
      "anonymous": false,
      "inputs": [
        {
          "indexed": true,
          "internalType": "address",
          "name": "owner",
          "type": "address"
        },
        {
          "indexed": true,
          "internalType": "address",
          "name": "operator",
          "type": "address"
        },
        {
          "indexed": false,
          "internalType": "bool",
          "name": "approved",
          "type": "bool"
        }
      ],
      "name": "ApprovalForAll",
      "type": "event"
    },
    {
      "anonymous": false,
      "inputs": [
        {
          "indexed": false,
          "internalType": "uint8",
          "name": "version",
          "type": "uint8"
        }
      ],
      "name": "Initialized",
      "type": "event"
    },
    {
      "anonymous": false,
      "inputs": [
        {
          "indexed": true,
          "internalType": "address",
          "name": "previousOwner",
          "type": "address"
        },
        {
          "indexed": true,
          "internalType": "address",
          "name": "newOwner",
          "type": "address"
        }
      ],
      "name": "OwnershipTransferred",
      "type": "event"
    },
    {
      "anonymous": false,
      "inputs": [
        {
          "indexed": true,
          "internalType": "bytes32",
          "name": "role",
          "type": "bytes32"
        },
        {
          "indexed": true,
          "internalType": "bytes32",
          "name": "previousAdminRole",
          "type": "bytes32"
        },
        {
          "indexed": true,
          "internalType": "bytes32",
          "name": "newAdminRole",
          "type": "bytes32"
        }
      ],
      "name": "RoleAdminChanged",
      "type": "event"
    },
    {
      "anonymous": false,
      "inputs": [
        {
          "indexed": true,
          "internalType": "bytes32",
          "name": "role",
          "type": "bytes32"
        },
        {
          "indexed": true,
          "internalType": "address",
          "name": "account",
          "type": "address"
        },
        {
          "indexed": true,
          "internalType": "address",
          "name": "sender",
          "type": "address"
        }
      ],
      "name": "RoleGranted",
      "type": "event"
    },
    {
      "anonymous": false,
      "inputs": [
        {
          "indexed": true,
          "internalType": "bytes32",
          "name": "role",
          "type": "bytes32"
        },
        {
          "indexed": true,
          "internalType": "address",
          "name": "account",
          "type": "address"
        },
        {
          "indexed": true,
          "internalType": "address",
          "name": "sender",
          "type": "address"
        }
      ],
      "name": "RoleRevoked",
      "type": "event"
    },
    {
      "anonymous": false,
      "inputs": [
        {
          "indexed": true,
          "internalType": "address",
          "name": "from",
          "type": "address"
        },
        {
          "indexed": true,
          "internalType": "address",
          "name": "to",
          "type": "address"
        },
        {
          "indexed": true,
          "internalType": "uint256",
          "name": "tokenId",
          "type": "uint256"
        }
      ],
      "name": "Transfer",
      "type": "event"
    },
    {
      "inputs": [],
      "name": "ADMIN_ROLE",
      "outputs": [
        {
          "internalType": "bytes32",
          "name": "",
          "type": "bytes32"
        }
      ],
      "stateMutability": "view",
      "type": "function"
    },
    {
      "inputs": [],
      "name": "DEFAULT_ADMIN_ROLE",
      "outputs": [
        {
          "internalType": "bytes32",
          "name": "",
          "type": "bytes32"
        }
      ],
      "stateMutability": "view",
      "type": "function"
    },
    {
      "inputs": [],
      "name": "VERSION",
      "outputs": [
        {
          "internalType": "uint256",
          "name": "",
          "type": "uint256"
        }
      ],
      "stateMutability": "view",
      "type": "function"
    },
    {
      "inputs": [
        {
          "internalType": "address",
          "name": "to",
          "type": "address"
        },
        {
          "internalType": "uint256",
          "name": "tokenId",
          "type": "uint256"
        }
      ],
      "name": "approve",
      "outputs": [],
      "stateMutability": "nonpayable",
      "type": "function"
    },
    {
      "inputs": [
        {
          "internalType": "address",
          "name": "owner",
          "type": "address"
        }
      ],
      "name": "balanceOf",
      "outputs": [
        {
          "internalType": "uint256",
          "name": "",
          "type": "uint256"
        }
      ],
      "stateMutability": "view",
      "type": "function"
    },
    {
      "inputs": [],
      "name": "baseURI",
      "outputs": [
        {
          "internalType": "string",
          "name": "",
          "type": "string"
        }
      ],
      "stateMutability": "view",
      "type": "function"
    },
    {
      "inputs": [],
      "name": "contractURI",
      "outputs": [
        {
          "internalType": "string",
          "name": "",
          "type": "string"
        }
      ],
      "stateMutability": "view",
      "type": "function"
    },
    {
      "inputs": [
        {
          "internalType": "uint256",
          "name": "tokenId",
          "type": "uint256"
        }
      ],
      "name": "getApproved",
      "outputs": [
        {
          "internalType": "address",
          "name": "",
          "type": "address"
        }
      ],
      "stateMutability": "view",
      "type": "function"
    },
    {
      "inputs": [],
      "name": "getInfo",
      "outputs": [
        {
          "components": [
            {
              "internalType": "uint256",
              "name": "version",
              "type": "uint256"
            },
            {
              "components": [
                {
                  "internalType": "string",
                  "name": "name",
                  "type": "string"
                },
                {
                  "internalType": "string",
                  "name": "symbol",
                  "type": "string"
                },
                {
                  "internalType": "address",
                  "name": "owner",
                  "type": "address"
                },
                {
                  "internalType": "uint256",
                  "name": "maxSupply",
                  "type": "uint256"
                },
                {
                  "internalType": "uint256",
                  "name": "mintPrice",
                  "type": "uint256"
                },
                {
                  "internalType": "uint256",
                  "name": "tokensPerMint",
                  "type": "uint256"
                },
                {
                  "internalType": "address payable",
                  "name": "treasuryAddress",
                  "type": "address"
                }
              ],
              "internalType": "struct NFTCollection.DeploymentConfig",
              "name": "deploymentConfig",
              "type": "tuple"
            },
            {
              "components": [
                {
                  "internalType": "string",
                  "name": "baseURI",
                  "type": "string"
                },
                {
                  "internalType": "bool",
                  "name": "metadataUpdatable",
                  "type": "bool"
                },
                {
                  "internalType": "uint256",
                  "name": "publicMintStart",
                  "type": "uint256"
                },
                {
                  "internalType": "uint256",
                  "name": "presaleMintStart",
                  "type": "uint256"
                },
                {
                  "internalType": "string",
                  "name": "prerevealTokenURI",
                  "type": "string"
                },
                {
                  "internalType": "bytes32",
                  "name": "presaleMerkleRoot",
                  "type": "bytes32"
                },
                {
                  "internalType": "uint256",
                  "name": "royaltiesBps",
                  "type": "uint256"
                },
                {
                  "internalType": "address",
                  "name": "royaltiesAddress",
                  "type": "address"
                }
              ],
              "internalType": "struct NFTCollection.RuntimeConfig",
              "name": "runtimeConfig",
              "type": "tuple"
            }
          ],
          "internalType": "struct NFTCollection.ContractInfo",
          "name": "info",
          "type": "tuple"
        }
      ],
      "stateMutability": "view",
      "type": "function"
    },
    {
      "inputs": [
        {
          "internalType": "bytes32",
          "name": "role",
          "type": "bytes32"
        }
      ],
      "name": "getRoleAdmin",
      "outputs": [
        {
          "internalType": "bytes32",
          "name": "",
          "type": "bytes32"
        }
      ],
      "stateMutability": "view",
      "type": "function"
    },
    {
      "inputs": [
        {
          "internalType": "bytes32",
          "name": "role",
          "type": "bytes32"
        },
        {
          "internalType": "address",
          "name": "account",
          "type": "address"
        }
      ],
      "name": "grantRole",
      "outputs": [],
      "stateMutability": "nonpayable",
      "type": "function"
    },
    {
      "inputs": [
        {
          "internalType": "bytes32",
          "name": "role",
          "type": "bytes32"
        },
        {
          "internalType": "address",
          "name": "account",
          "type": "address"
        }
      ],
      "name": "hasRole",
      "outputs": [
        {
          "internalType": "bool",
          "name": "",
          "type": "bool"
        }
      ],
      "stateMutability": "view",
      "type": "function"
    },
    {
      "inputs": [
        {
          "components": [
            {
              "internalType": "string",
              "name": "name",
              "type": "string"
            },
            {
              "internalType": "string",
              "name": "symbol",
              "type": "string"
            },
            {
              "internalType": "address",
              "name": "owner",
              "type": "address"
            },
            {
              "internalType": "uint256",
              "name": "maxSupply",
              "type": "uint256"
            },
            {
              "internalType": "uint256",
              "name": "mintPrice",
              "type": "uint256"
            },
            {
              "internalType": "uint256",
              "name": "tokensPerMint",
              "type": "uint256"
            },
            {
              "internalType": "address payable",
              "name": "treasuryAddress",
              "type": "address"
            }
          ],
          "internalType": "struct NFTCollection.DeploymentConfig",
          "name": "deploymentConfig",
          "type": "tuple"
        },
        {
          "components": [
            {
              "internalType": "string",
              "name": "baseURI",
              "type": "string"
            },
            {
              "internalType": "bool",
              "name": "metadataUpdatable",
              "type": "bool"
            },
            {
              "internalType": "uint256",
              "name": "publicMintStart",
              "type": "uint256"
            },
            {
              "internalType": "uint256",
              "name": "presaleMintStart",
              "type": "uint256"
            },
            {
              "internalType": "string",
              "name": "prerevealTokenURI",
              "type": "string"
            },
            {
              "internalType": "bytes32",
              "name": "presaleMerkleRoot",
              "type": "bytes32"
            },
            {
              "internalType": "uint256",
              "name": "royaltiesBps",
              "type": "uint256"
            },
            {
              "internalType": "address",
              "name": "royaltiesAddress",
              "type": "address"
            }
          ],
          "internalType": "struct NFTCollection.RuntimeConfig",
          "name": "runtimeConfig",
          "type": "tuple"
        }
      ],
      "name": "initialize",
      "outputs": [],
      "stateMutability": "nonpayable",
      "type": "function"
    },
    {
      "inputs": [
        {
          "internalType": "address",
          "name": "owner",
          "type": "address"
        },
        {
          "internalType": "address",
          "name": "operator",
          "type": "address"
        }
      ],
      "name": "isApprovedForAll",
      "outputs": [
        {
          "internalType": "bool",
          "name": "",
          "type": "bool"
        }
      ],
      "stateMutability": "view",
      "type": "function"
    },
    {
      "inputs": [
        {
          "internalType": "address",
          "name": "wallet",
          "type": "address"
        },
        {
          "internalType": "bytes32[]",
          "name": "proof",
          "type": "bytes32[]"
        }
      ],
      "name": "isWhitelisted",
      "outputs": [
        {
          "internalType": "bool",
          "name": "",
          "type": "bool"
        }
      ],
      "stateMutability": "view",
      "type": "function"
    },
    {
      "inputs": [],
      "name": "maxSupply",
      "outputs": [
        {
          "internalType": "uint256",
          "name": "",
          "type": "uint256"
        }
      ],
      "stateMutability": "view",
      "type": "function"
    },
    {
      "inputs": [],
      "name": "metadataUpdatable",
      "outputs": [
        {
          "internalType": "bool",
          "name": "",
          "type": "bool"
        }
      ],
      "stateMutability": "view",
      "type": "function"
    },
    {
      "inputs": [
        {
          "internalType": "uint256",
          "name": "amount",
          "type": "uint256"
        }
      ],
      "name": "mint",
      "outputs": [],
      "stateMutability": "payable",
      "type": "function"
    },
    {
      "inputs": [],
      "name": "mintPrice",
      "outputs": [
        {
          "internalType": "uint256",
          "name": "",
          "type": "uint256"
        }
      ],
      "stateMutability": "view",
      "type": "function"
    },
    {
      "inputs": [],
      "name": "mintingActive",
      "outputs": [
        {
          "internalType": "bool",
          "name": "",
          "type": "bool"
        }
      ],
      "stateMutability": "view",
      "type": "function"
    },
    {
      "inputs": [],
      "name": "name",
      "outputs": [
        {
          "internalType": "string",
          "name": "",
          "type": "string"
        }
      ],
      "stateMutability": "view",
      "type": "function"
    },
    {
      "inputs": [],
      "name": "owner",
      "outputs": [
        {
          "internalType": "address",
          "name": "",
          "type": "address"
        }
      ],
      "stateMutability": "view",
      "type": "function"
    },
    {
      "inputs": [
        {
          "internalType": "uint256",
          "name": "tokenId",
          "type": "uint256"
        }
      ],
      "name": "ownerOf",
      "outputs": [
        {
          "internalType": "address",
          "name": "",
          "type": "address"
        }
      ],
      "stateMutability": "view",
      "type": "function"
    },
    {
      "inputs": [],
      "name": "prerevealTokenURI",
      "outputs": [
        {
          "internalType": "string",
          "name": "",
          "type": "string"
        }
      ],
      "stateMutability": "view",
      "type": "function"
    },
    {
      "inputs": [],
      "name": "presaleActive",
      "outputs": [
        {
          "internalType": "bool",
          "name": "",
          "type": "bool"
        }
      ],
      "stateMutability": "view",
      "type": "function"
    },
    {
      "inputs": [],
      "name": "presaleMerkleRoot",
      "outputs": [
        {
          "internalType": "bytes32",
          "name": "",
          "type": "bytes32"
        }
      ],
      "stateMutability": "view",
      "type": "function"
    },
    {
      "inputs": [
        {
          "internalType": "uint256",
          "name": "amount",
          "type": "uint256"
        },
        {
          "internalType": "bytes32[]",
          "name": "proof",
          "type": "bytes32[]"
        }
      ],
      "name": "presaleMint",
      "outputs": [],
      "stateMutability": "payable",
      "type": "function"
    },
    {
      "inputs": [],
      "name": "presaleMintStart",
      "outputs": [
        {
          "internalType": "uint256",
          "name": "",
          "type": "uint256"
        }
      ],
      "stateMutability": "view",
      "type": "function"
    },
    {
      "inputs": [],
      "name": "publicMintStart",
      "outputs": [
        {
          "internalType": "uint256",
          "name": "",
          "type": "uint256"
        }
      ],
      "stateMutability": "view",
      "type": "function"
    },
    {
      "inputs": [
        {
          "internalType": "bytes32",
          "name": "role",
          "type": "bytes32"
        },
        {
          "internalType": "address",
          "name": "account",
          "type": "address"
        }
      ],
      "name": "renounceRole",
      "outputs": [],
      "stateMutability": "nonpayable",
      "type": "function"
    },
    {
      "inputs": [
        {
          "internalType": "bytes32",
          "name": "role",
          "type": "bytes32"
        },
        {
          "internalType": "address",
          "name": "account",
          "type": "address"
        }
      ],
      "name": "revokeRole",
      "outputs": [],
      "stateMutability": "nonpayable",
      "type": "function"
    },
    {
      "inputs": [
        {
          "internalType": "uint256",
          "name": "",
          "type": "uint256"
        },
        {
          "internalType": "uint256",
          "name": "salePrice",
          "type": "uint256"
        }
      ],
      "name": "royaltyInfo",
      "outputs": [
        {
          "internalType": "address",
          "name": "receiver",
          "type": "address"
        },
        {
          "internalType": "uint256",
          "name": "royaltyAmount",
          "type": "uint256"
        }
      ],
      "stateMutability": "view",
      "type": "function"
    },
    {
      "inputs": [
        {
          "internalType": "address",
          "name": "from",
          "type": "address"
        },
        {
          "internalType": "address",
          "name": "to",
          "type": "address"
        },
        {
          "internalType": "uint256",
          "name": "tokenId",
          "type": "uint256"
        }
      ],
      "name": "safeTransferFrom",
      "outputs": [],
      "stateMutability": "nonpayable",
      "type": "function"
    },
    {
      "inputs": [
        {
          "internalType": "address",
          "name": "from",
          "type": "address"
        },
        {
          "internalType": "address",
          "name": "to",
          "type": "address"
        },
        {
          "internalType": "uint256",
          "name": "tokenId",
          "type": "uint256"
        },
        {
          "internalType": "bytes",
          "name": "data",
          "type": "bytes"
        }
      ],
      "name": "safeTransferFrom",
      "outputs": [],
      "stateMutability": "nonpayable",
      "type": "function"
    },
    {
      "inputs": [
        {
          "internalType": "address",
          "name": "operator",
          "type": "address"
        },
        {
          "internalType": "bool",
          "name": "approved",
          "type": "bool"
        }
      ],
      "name": "setApprovalForAll",
      "outputs": [],
      "stateMutability": "nonpayable",
      "type": "function"
    },
    {
      "inputs": [
        {
          "internalType": "bytes4",
          "name": "interfaceId",
          "type": "bytes4"
        }
      ],
      "name": "supportsInterface",
      "outputs": [
        {
          "internalType": "bool",
          "name": "",
          "type": "bool"
        }
      ],
      "stateMutability": "view",
      "type": "function"
    },
    {
      "inputs": [],
      "name": "symbol",
      "outputs": [
        {
          "internalType": "string",
          "name": "",
          "type": "string"
        }
      ],
      "stateMutability": "view",
      "type": "function"
    },
    {
      "inputs": [
        {
          "internalType": "uint256",
          "name": "tokenId",
          "type": "uint256"
        }
      ],
      "name": "tokenURI",
      "outputs": [
        {
          "internalType": "string",
          "name": "",
          "type": "string"
        }
      ],
      "stateMutability": "view",
      "type": "function"
    },
    {
      "inputs": [],
      "name": "tokensPerMint",
      "outputs": [
        {
          "internalType": "uint256",
          "name": "",
          "type": "uint256"
        }
      ],
      "stateMutability": "view",
      "type": "function"
    },
    {
      "inputs": [],
      "name": "totalSupply",
      "outputs": [
        {
          "internalType": "uint256",
          "name": "",
          "type": "uint256"
        }
      ],
      "stateMutability": "view",
      "type": "function"
    },
    {
      "inputs": [
        {
          "internalType": "address",
          "name": "to",
          "type": "address"
        }
      ],
      "name": "transferAdminRights",
      "outputs": [],
      "stateMutability": "nonpayable",
      "type": "function"
    },
    {
      "inputs": [
        {
          "internalType": "address",
          "name": "from",
          "type": "address"
        },
        {
          "internalType": "address",
          "name": "to",
          "type": "address"
        },
        {
          "internalType": "uint256",
          "name": "tokenId",
          "type": "uint256"
        }
      ],
      "name": "transferFrom",
      "outputs": [],
      "stateMutability": "nonpayable",
      "type": "function"
    },
    {
      "inputs": [
        {
          "internalType": "address",
          "name": "newOwner",
          "type": "address"
        }
      ],
      "name": "transferOwnership",
      "outputs": [],
      "stateMutability": "nonpayable",
      "type": "function"
    },
    {
      "inputs": [],
      "name": "treasuryAddress",
      "outputs": [
        {
          "internalType": "address",
          "name": "",
          "type": "address"
        }
      ],
      "stateMutability": "view",
      "type": "function"
    },
    {
      "inputs": [
        {
          "components": [
            {
              "internalType": "string",
              "name": "baseURI",
              "type": "string"
            },
            {
              "internalType": "bool",
              "name": "metadataUpdatable",
              "type": "bool"
            },
            {
              "internalType": "uint256",
              "name": "publicMintStart",
              "type": "uint256"
            },
            {
              "internalType": "uint256",
              "name": "presaleMintStart",
              "type": "uint256"
            },
            {
              "internalType": "string",
              "name": "prerevealTokenURI",
              "type": "string"
            },
            {
              "internalType": "bytes32",
              "name": "presaleMerkleRoot",
              "type": "bytes32"
            },
            {
              "internalType": "uint256",
              "name": "royaltiesBps",
              "type": "uint256"
            },
            {
              "internalType": "address",
              "name": "royaltiesAddress",
              "type": "address"
            }
          ],
          "internalType": "struct NFTCollection.RuntimeConfig",
          "name": "newConfig",
          "type": "tuple"
        }
      ],
      "name": "updateConfig",
      "outputs": [],
      "stateMutability": "nonpayable",
      "type": "function"
    },
    {
      "inputs": [],
      "name": "withdrawFees",
      "outputs": [],
      "stateMutability": "nonpayable",
      "type": "function"
    }
  ],
  "bytecode": "0x60806040523480156200001157600080fd5b5060408051602080820180845260008084528451928301909452838252825192939192620000419291906200006d565b508051620000579060019060208401906200006d565b5050601a805460ff19166001179055506200014f565b8280546200007b9062000113565b90600052602060002090601f0160209004810192826200009f5760008555620000ea565b82601f10620000ba57805160ff1916838001178555620000ea565b82800160010185558215620000ea579182015b82811115620000ea578251825591602001919060010190620000cd565b50620000f8929150620000fc565b5090565b5b80821115620000f85760008155600101620000fd565b600181811c908216806200012857607f821691505b6020821081036200014957634e487b7160e01b600052602260045260246000fd5b50919050565b613b9a806200015f6000396000f3fe60806040526004361061027d5760003560e01c806370a082311161014f578063b88d4fde116100c1578063e8a3d4851161007a578063e8a3d48514610740578063e985e9c514610755578063f2fde38b1461079e578063f4ad0f97146107be578063fa0440b6146107d3578063ffa1ad74146107f357600080fd5b8063b88d4fde1461069a578063c5f956af146106ba578063c87b56dd146106d8578063d547741f146106f8578063d5abeb0114610718578063e3e1e8ef1461072d57600080fd5b806391d148541161011357806391d14854146105fd57806395d89b411461061d578063a0712d6814610632578063a217fddf14610645578063a22cb4651461065a578063b5106add1461067a57600080fd5b806370a082311461056857806375b238fc14610588578063877bb1ae146105aa5780638cfec4c0146105ca5780638da5cb5b146105df57600080fd5b806331f9c919116101f357806353135ca0116101ac57806353135ca0146104c55780635a23dd99146104dc5780635a9b0b89146104fc5780636352211e1461051e5780636817c76c1461053e5780636c0360eb1461055357600080fd5b806331f9c9191461042c57806336568abe1461044357806342842e0e146104635780634653124b14610483578063476343ee146104985780634e6f9dd6146104ad57600080fd5b806318160ddd1161024557806318160ddd1461035257806322212e2b1461036857806323b872dd1461037d578063248a9ca31461039d5780632a55205a146103cd5780632f2ff15d1461040c57600080fd5b806301ffc9a71461028257806306fdde03146102b75780630807b9e2146102d9578063081812fc146102f8578063095ea7b314610330575b600080fd5b34801561028e57600080fd5b506102a261029d366004612c8b565b610809565b60405190151581526020015b60405180910390f35b3480156102c357600080fd5b506102cc610838565b6040516102ae9190612d00565b3480156102e557600080fd5b506018545b6040519081526020016102ae565b34801561030457600080fd5b50610318610313366004612d13565b6108cd565b6040516001600160a01b0390911681526020016102ae565b34801561033c57600080fd5b5061035061034b366004612d51565b6108f4565b005b34801561035e57600080fd5b506102ea600a5481565b34801561037457600080fd5b506010546102ea565b34801561038957600080fd5b50610350610398366004612d7d565b610a0e565b3480156103a957600080fd5b506102ea6103b8366004612d13565b60009081526008602052604090206001015490565b3480156103d957600080fd5b506103ed6103e8366004612dbe565b610a3f565b604080516001600160a01b0390931683526020830191909152016102ae565b34801561041857600080fd5b50610350610427366004612de0565b610a76565b34801561043857600080fd5b50600d5442116102a2565b34801561044f57600080fd5b5061035061045e366004612de0565b610a9b565b34801561046f57600080fd5b5061035061047e366004612d7d565b610b19565b34801561048f57600080fd5b50600e546102ea565b3480156104a457600080fd5b50610350610b34565b3480156104b957600080fd5b50600c5460ff166102a2565b3480156104d157600080fd5b50600e5442116102a2565b3480156104e857600080fd5b506102a26104f7366004612e5b565b610b65565b34801561050857600080fd5b50610511610c43565b6040516102ae9190612f32565b34801561052a57600080fd5b50610318610539366004612d13565b610f5a565b34801561054a57600080fd5b506017546102ea565b34801561055f57600080fd5b506102cc610fba565b34801561057457600080fd5b506102ea610583366004612fe3565b610fcc565b34801561059457600080fd5b506102ea600080516020613b4583398151915281565b3480156105b657600080fd5b506103506105c5366004613000565b611052565b3480156105d657600080fd5b50600d546102ea565b3480156105eb57600080fd5b506015546001600160a01b0316610318565b34801561060957600080fd5b506102a2610618366004612de0565b611086565b34801561062957600080fd5b506102cc6110b1565b610350610640366004612d13565b6110c3565b34801561065157600080fd5b506102ea600081565b34801561066657600080fd5b50610350610675366004613054565b61111e565b34801561068657600080fd5b50610350610695366004612fe3565b611129565b3480156106a657600080fd5b506103506106b5366004613158565b61121b565b3480156106c657600080fd5b506019546001600160a01b0316610318565b3480156106e457600080fd5b506102cc6106f3366004612d13565b61124d565b34801561070457600080fd5b50610350610713366004612de0565b611385565b34801561072457600080fd5b506016546102ea565b61035061073b3660046131d7565b6113aa565b34801561074c57600080fd5b506102cc611476565b34801561076157600080fd5b506102a2610770366004613209565b6001600160a01b03918216600090815260056020908152604080832093909416825291909152205460ff1690565b3480156107aa57600080fd5b506103506107b9366004612fe3565b6114f3565b3480156107ca57600080fd5b506102cc611624565b3480156107df57600080fd5b506103506107ee366004613310565b611636565b3480156107ff57600080fd5b506102ea61277481565b600061081482611902565b80610823575061082382611952565b80610832575061083282611973565b92915050565b60606013600001805461084a90613405565b80601f016020809104026020016040519081016040528092919081815260200182805461087690613405565b80156108c35780601f10610898576101008083540402835291602001916108c3565b820191906000526020600020905b8154815290600101906020018083116108a657829003601f168201915b5050505050905090565b60006108d882611998565b506000908152600460205260409020546001600160a01b031690565b60006108ff82610f5a565b9050806001600160a01b0316836001600160a01b0316036109715760405162461bcd60e51b815260206004820152602160248201527f4552433732313a20617070726f76616c20746f2063757272656e74206f776e656044820152603960f91b60648201526084015b60405180910390fd5b336001600160a01b038216148061098d575061098d8133610770565b6109ff5760405162461bcd60e51b815260206004820152603e60248201527f4552433732313a20617070726f76652063616c6c6572206973206e6f7420746f60448201527f6b656e206f776e6572206e6f7220617070726f76656420666f7220616c6c00006064820152608401610968565b610a0983836119f7565b505050565b610a183382611a65565b610a345760405162461bcd60e51b81526004016109689061343f565b610a09838383611ae4565b6012546011546001600160a01b039091169060009061271090610a639085906134a3565b610a6d91906134d8565b90509250929050565b600082815260086020526040902060010154610a9181611c80565b610a098383611c8a565b6001600160a01b0381163314610b0b5760405162461bcd60e51b815260206004820152602f60248201527f416363657373436f6e74726f6c3a2063616e206f6e6c792072656e6f756e636560448201526e103937b632b9903337b91039b2b63360891b6064820152608401610968565b610b158282611d10565b5050565b610a098383836040518060200160405280600081525061121b565b600080516020613b45833981519152610b4c81611c80565b601954610b62906001600160a01b031647611d77565b50565b6001600160a01b0383166000908152601b602052604081205460ff1615610bbf5760405162461bcd60e51b815260206004820152600e60248201526d105b1c9958591e481b5a5b9d195960921b6044820152606401610968565b6040516bffffffffffffffffffffffff19606086901b166020820152600090603401604051602081830303815290604052805190602001209050610c3a848480806020026020016040519081016040528093929190818152602001838360200280828437600092019190915250506010549150849050611e90565b95945050505050565b610c4b612b18565b61277481526040805160e081019091526013805482908290610c6c90613405565b80601f0160208091040260200160405190810160405280929190818152602001828054610c9890613405565b8015610ce55780601f10610cba57610100808354040283529160200191610ce5565b820191906000526020600020905b815481529060010190602001808311610cc857829003601f168201915b50505050508152602001600182018054610cfe90613405565b80601f0160208091040260200160405190810160405280929190818152602001828054610d2a90613405565b8015610d775780601f10610d4c57610100808354040283529160200191610d77565b820191906000526020600020905b815481529060010190602001808311610d5a57829003601f168201915b505050918352505060028201546001600160a01b039081166020808401919091526003840154604080850191909152600485015460608501526005850154608085015260069094015490911660a09092019190915283019190915280516101008101909152600b805482908290610ded90613405565b80601f0160208091040260200160405190810160405280929190818152602001828054610e1990613405565b8015610e665780601f10610e3b57610100808354040283529160200191610e66565b820191906000526020600020905b815481529060010190602001808311610e4957829003601f168201915b5050509183525050600182015460ff16151560208201526002820154604082015260038201546060820152600482018054608090920191610ea690613405565b80601f0160208091040260200160405190810160405280929190818152602001828054610ed290613405565b8015610f1f5780601f10610ef457610100808354040283529160200191610f1f565b820191906000526020600020905b815481529060010190602001808311610f0257829003601f168201915b50505091835250506005820154602082015260068201546040808301919091526007909201546001600160a01b031660609091015282015290565b6000818152600260205260408120546001600160a01b0316806108325760405162461bcd60e51b8152602060048201526018602482015277115490cdcc8c4e881a5b9d985b1a59081d1bdad95b88125160421b6044820152606401610968565b6060600b600001805461084a90613405565b60006001600160a01b0382166110365760405162461bcd60e51b815260206004820152602960248201527f4552433732313a2061646472657373207a65726f206973206e6f7420612076616044820152683634b21037bbb732b960b91b6064820152608401610968565b506001600160a01b031660009081526003602052604090205490565b600080516020613b4583398151915261106a81611c80565b61107382611ea6565b81600b611080828261365a565b50505050565b60009182526008602090815260408084206001600160a01b0393909316845291905290205460ff1690565b60606013600101805461084a90613405565b600d5442116111145760405162461bcd60e51b815260206004820152601b60248201527f4d696e74696e6720686173206e6f7420737461727465642079657400000000006044820152606401610968565b610b623382612001565b610b1533838361212c565b600080516020613b4583398151915261114181611c80565b611159600080516020613b4583398151915283611086565b156111995760405162461bcd60e51b815260206004820152601060248201526f20b63932b0b23c9030b71030b236b4b760811b6044820152606401610968565b6015546001600160a01b031633036111eb5760405162461bcd60e51b81526020600482015260156024820152740557365207472616e736665724f776e65727368697605c1b6044820152606401610968565b611203600080516020613b4583398151915233611d10565b610b15600080516020613b4583398151915283611c8a565b6112253383611a65565b6112415760405162461bcd60e51b81526004016109689061343f565b611080848484846121fa565b6000818152600260205260409020546060906001600160a01b03166112ab5760405162461bcd60e51b8152602060048201526014602482015273151bdad95b88191bd95cc81b9bdd08195e1a5cdd60621b6044820152606401610968565b6000600b60000180546112bd90613405565b90501161135457600f80546112d190613405565b80601f01602080910402602001604051908101604052809291908181526020018280546112fd90613405565b801561134a5780601f1061131f5761010080835404028352916020019161134a565b820191906000526020600020905b81548152906001019060200180831161132d57829003601f168201915b5050505050610832565b600b61135f8361222d565b604051602001611370929190613830565b60405160208183030381529060405292915050565b6000828152600860205260409020600101546113a081611c80565b610a098383611d10565b600e5442116113fb5760405162461bcd60e51b815260206004820152601b60248201527f50726573616c6520686173206e6f7420737461727465642079657400000000006044820152606401610968565b611406338383610b65565b6114525760405162461bcd60e51b815260206004820152601b60248201527f4e6f742077686974656c697374656420666f722070726573616c6500000000006044820152606401610968565b336000818152601b60205260409020805460ff19166001179055610a099084612001565b606060006114c761148b600b6006015461222d565b6012546114a2906001600160a01b0316601461232d565b6040516020016114b3929190613855565b6040516020818303038152906040526124cf565b90506000816040516020016114dc91906138dc565b60408051601f198184030181529190529392505050565b60006114fe81611c80565b6015546001600160a01b03908116908316036115505760405162461bcd60e51b815260206004820152601160248201527020b63932b0b23c903a34329037bbb732b960791b6044820152606401610968565b60155461157590600080516020613b45833981519152906001600160a01b0316611d10565b60155461158d906000906001600160a01b0316611d10565b601580546001600160a01b038481166001600160a01b03198316811790935516906115c790600080516020613b4583398151915290611c8a565b6015546115df906000906001600160a01b0316611c8a565b826001600160a01b0316816001600160a01b03167f8be0079c531659141344cd1fd0a4f28419497f9722a3daafe3b4186f6b6457e060405160405180910390a3505050565b6060600b600401805461084a90613405565b600954610100900460ff16158080156116565750600954600160ff909116105b806116705750303b158015611670575060095460ff166001145b6116d35760405162461bcd60e51b815260206004820152602e60248201527f496e697469616c697a61626c653a20636f6e747261637420697320616c72656160448201526d191e481a5b9a5d1a585b1a5e995960921b6064820152608401610968565b6009805460ff1916600117905580156116f6576009805461ff0019166101001790555b601a5460ff16156117415760405162461bcd60e51b815260206004820152601560248201527410d85b9b9bdd081899481a5b9a5d1a585b1a5e9959605a1b6044820152606401610968565b61174a83612638565b611762600080516020613b4583398151915233611c8a565b61177e600080516020613b458339815191528460400151611c8a565b61178f6000801b8460400151611c8a565b8251805184916013916117a9918391602090910190612bdc565b5060208281015180516117c29260018501920190612bdc565b5060408201516002820180546001600160a01b03199081166001600160a01b0393841617909155606084015160038401556080840151600484015560a0840151600584015560c090930151600690920180549093169116179055815180518391600b91611836918391602090910190612bdc565b5060208281015160018301805460ff191691151591909117905560408301516002830155606083015160038301556080830151805161187b9260048501920190612bdc565b5060a0820151600582015560c0820151600682015560e090910151600790910180546001600160a01b0319166001600160a01b039092169190911790558015610a09576009805461ff0019169055604051600181527f7f26b83ff96e1f2b6a682f133852f6798a09c465da95921460cefb38474024989060200160405180910390a1505050565b60006001600160e01b031982166380ac58cd60e01b148061193357506001600160e01b03198216635b5e139f60e01b145b8061083257506301ffc9a760e01b6001600160e01b0319831614610832565b60006001600160e01b03198216637965db0b60e01b14806108325750610832825b60006001600160e01b0319821663152a902d60e11b1480610832575061083282611902565b6000818152600260205260409020546001600160a01b0316610b625760405162461bcd60e51b8152602060048201526018602482015277115490cdcc8c4e881a5b9d985b1a59081d1bdad95b88125160421b6044820152606401610968565b600081815260046020526040902080546001600160a01b0319166001600160a01b0384169081179091558190611a2c82610f5a565b6001600160a01b03167f8c5be1e5ebec7d5bd14f71427d1e84f3dd0314c0f7b2291e5b200ac8c7c3b92560405160405180910390a45050565b600080611a7183610f5a565b9050806001600160a01b0316846001600160a01b03161480611ab857506001600160a01b0380821660009081526005602090815260408083209388168352929052205460ff165b80611adc5750836001600160a01b0316611ad1846108cd565b6001600160a01b0316145b949350505050565b826001600160a01b0316611af782610f5a565b6001600160a01b031614611b5b5760405162461bcd60e51b815260206004820152602560248201527f4552433732313a207472616e736665722066726f6d20696e636f72726563742060448201526437bbb732b960d91b6064820152608401610968565b6001600160a01b038216611bbd5760405162461bcd60e51b8152602060048201526024808201527f4552433732313a207472616e7366657220746f20746865207a65726f206164646044820152637265737360e01b6064820152608401610968565b611bc86000826119f7565b6001600160a01b0383166000908152600360205260408120805460019290611bf1908490613921565b90915550506001600160a01b0382166000908152600360205260408120805460019290611c1f908490613938565b909155505060008181526002602052604080822080546001600160a01b0319166001600160a01b0386811691821790925591518493918716917fddf252ad1be2c89b69c2b068fc378daa952ba7f163c4a11628f55a4df523b3ef91a4505050565b610b6281336127a8565b611c948282611086565b610b155760008281526008602090815260408083206001600160a01b03851684529091529020805460ff19166001179055611ccc3390565b6001600160a01b0316816001600160a01b0316837f2f8788117e7eff1d82e926ec794901d17c78024a50270940304540a733656f0d60405160405180910390a45050565b611d1a8282611086565b15610b155760008281526008602090815260408083206001600160a01b0385168085529252808320805460ff1916905551339285917ff6391f5c32d9c69d2a47ea670b442974b53935d1edc7fd64eb21e047a839171b9190a45050565b80471015611dc75760405162461bcd60e51b815260206004820152601d60248201527f416464726573733a20696e73756666696369656e742062616c616e63650000006044820152606401610968565b6000826001600160a01b03168260405160006040518083038185875af1925050503d8060008114611e14576040519150601f19603f3d011682016040523d82523d6000602084013e611e19565b606091505b5050905080610a095760405162461bcd60e51b815260206004820152603a60248201527f416464726573733a20756e61626c6520746f2073656e642076616c75652c207260448201527f6563697069656e74206d617920686176652072657665727465640000000000006064820152608401610968565b600082611e9d858461280c565b14949350505050565b61271060c08201351115611ef15760405162461bcd60e51b81526020600482015260126024820152710a4def2c2d8e8d2cae640e8dede40d0d2ced60731b6044820152606401610968565b600c5460ff1615611eff5750565b611f0f6040820160208301613950565b600c5460ff16151590151514611f675760405162461bcd60e51b815260206004820152601860248201527f43616e6e6f7420756e667265657a65206d6574616461746100000000000000006044820152606401610968565b611f7181806134ec565b604051602001611f8292919061396d565b60408051601f1981840301815290829052805160209182012091611fa991600b910161397d565b6040516020818303038152906040528051906020012014610b625760405162461bcd60e51b815260206004820152601260248201527126b2ba30b230ba309034b990333937bd32b760711b6044820152606401610968565b6018548111156120465760405162461bcd60e51b815260206004820152601060248201526f416d6f756e7420746f6f206c6172676560801b6044820152606401610968565b60175461205390826134a3565b3410156120965760405162461bcd60e51b815260206004820152601160248201527014185e5b595b9d081d1bdbc81cdb585b1b607a1b6044820152606401610968565b600081600a546120a69190613938565b6016549091508111156120f45760405162461bcd60e51b815260206004820152601660248201527513585e1a5b5d5b481cdd5c1c1b1e481c995858da195960521b6044820152606401610968565b600a81905560015b8281116110805761211a8482600a546121159190613921565b612859565b8061212481613989565b9150506120fc565b816001600160a01b0316836001600160a01b03160361218d5760405162461bcd60e51b815260206004820152601960248201527f4552433732313a20617070726f766520746f2063616c6c6572000000000000006044820152606401610968565b6001600160a01b03838116600081815260056020908152604080832094871680845294825291829020805460ff191686151590811790915591519182527f17307eab39ab6107e8899845ad3d59bd9653f200f220920489ca2b5937696c31910160405180910390a3505050565b612205848484611ae4565b61221184848484612873565b6110805760405162461bcd60e51b8152600401610968906139a2565b6060816000036122545750506040805180820190915260018152600360fc1b602082015290565b8160005b811561227e578061226881613989565b91506122779050600a836134d8565b9150612258565b6000816001600160401b0381111561229857612298613082565b6040519080825280601f01601f1916602001820160405280156122c2576020820181803683370190505b5090505b8415611adc576122d7600183613921565b91506122e4600a866139f4565b6122ef906030613938565b60f81b81838151811061230457612304613a08565b60200101906001600160f81b031916908160001a905350612326600a866134d8565b94506122c6565b6060600061233c8360026134a3565b612347906002613938565b6001600160401b0381111561235e5761235e613082565b6040519080825280601f01601f191660200182016040528015612388576020820181803683370190505b509050600360fc1b816000815181106123a3576123a3613a08565b60200101906001600160f81b031916908160001a905350600f60fb1b816001815181106123d2576123d2613a08565b60200101906001600160f81b031916908160001a90535060006123f68460026134a3565b612401906001613938565b90505b6001811115612479576f181899199a1a9b1b9c1cb0b131b232b360811b85600f166010811061243557612435613a08565b1a60f81b82828151811061244b5761244b613a08565b60200101906001600160f81b031916908160001a90535060049490941c9361247281613a1e565b9050612404565b5083156124c85760405162461bcd60e51b815260206004820181905260248201527f537472696e67733a20686578206c656e67746820696e73756666696369656e746044820152606401610968565b9392505050565b805160609060008190036124f3575050604080516020810190915260008152919050565b60006003612502836002613938565b61250c91906134d8565b6125179060046134a3565b90506000612526826020613938565b6001600160401b0381111561253d5761253d613082565b6040519080825280601f01601f191660200182016040528015612567576020820181803683370190505b5090506000604051806060016040528060408152602001613b05604091399050600181016020830160005b868110156125f3576003818a01810151603f601282901c8116860151600c83901c8216870151600684901c831688015192909316870151600891821b60ff94851601821b92841692909201901b91160160e01b835260049092019101612592565b50600386066001811461260d576002811461261e5761262a565b613d3d60f01b60011983015261262a565b603d60f81b6000198301525b505050918152949350505050565b600081606001511161268c5760405162461bcd60e51b815260206004820152601f60248201527f4d6178696d756d20737570706c79206d757374206265206e6f6e2d7a65726f006044820152606401610968565b60008160a00151116126e05760405162461bcd60e51b815260206004820181905260248201527f546f6b656e7320706572206d696e74206d757374206265206e6f6e2d7a65726f6044820152606401610968565b60c08101516001600160a01b031661274e5760405162461bcd60e51b815260206004820152602b60248201527f547265617375727920616464726573732063616e6e6f7420626520746865206e60448201526a756c6c206164647265737360a81b6064820152608401610968565b60408101516001600160a01b0316610b625760405162461bcd60e51b815260206004820152601b60248201527f436f6e7472616374206d757374206861766520616e206f776e657200000000006044820152606401610968565b6127b28282611086565b610b15576127ca816001600160a01b0316601461232d565b6127d583602061232d565b6040516020016127e6929190613a35565b60408051601f198184030181529082905262461bcd60e51b825261096891600401612d00565b600081815b84518110156128515761283d8286838151811061283057612830613a08565b6020026020010151612974565b91508061284981613989565b915050612811565b509392505050565b610b158282604051806020016040528060008152506129a3565b60006001600160a01b0384163b1561296957604051630a85bd0160e11b81526001600160a01b0385169063150b7a02906128b7903390899088908890600401613aaa565b6020604051808303816000875af19250505080156128f2575060408051601f3d908101601f191682019092526128ef91810190613ae7565b60015b61294f573d808015612920576040519150601f19603f3d011682016040523d82523d6000602084013e612925565b606091505b5080516000036129475760405162461bcd60e51b8152600401610968906139a2565b805181602001fd5b6001600160e01b031916630a85bd0160e11b149050611adc565b506001949350505050565b60008183106129905760008281526020849052604090206124c8565b60008381526020839052604090206124c8565b6129ad83836129d6565b6129ba6000848484612873565b610a095760405162461bcd60e51b8152600401610968906139a2565b6001600160a01b038216612a2c5760405162461bcd60e51b815260206004820181905260248201527f4552433732313a206d696e7420746f20746865207a65726f20616464726573736044820152606401610968565b6000818152600260205260409020546001600160a01b031615612a915760405162461bcd60e51b815260206004820152601c60248201527f4552433732313a20746f6b656e20616c7265616479206d696e746564000000006044820152606401610968565b6001600160a01b0382166000908152600360205260408120805460019290612aba908490613938565b909155505060008181526002602052604080822080546001600160a01b0319166001600160a01b03861690811790915590518392907fddf252ad1be2c89b69c2b068fc378daa952ba7f163c4a11628f55a4df523b3ef908290a45050565b604051806060016040528060008152602001612b7c6040518060e00160405280606081526020016060815260200160006001600160a01b0316815260200160008152602001600081526020016000815260200160006001600160a01b031681525090565b8152602001612bd760405180610100016040528060608152602001600015158152602001600081526020016000815260200160608152602001600080191681526020016000815260200160006001600160a01b031681525090565b905290565b828054612be890613405565b90600052602060002090601f016020900481019282612c0a5760008555612c50565b82601f10612c2357805160ff1916838001178555612c50565b82800160010185558215612c50579182015b82811115612c50578251825591602001919060010190612c35565b50612c5c929150612c60565b5090565b5b80821115612c5c5760008155600101612c61565b6001600160e01b031981168114610b6257600080fd5b600060208284031215612c9d57600080fd5b81356124c881612c75565b60005b83811015612cc3578181015183820152602001612cab565b838111156110805750506000910152565b60008151808452612cec816020860160208601612ca8565b601f01601f19169290920160200192915050565b6020815260006124c86020830184612cd4565b600060208284031215612d2557600080fd5b5035919050565b6001600160a01b0381168114610b6257600080fd5b8035612d4c81612d2c565b919050565b60008060408385031215612d6457600080fd5b8235612d6f81612d2c565b946020939093013593505050565b600080600060608486031215612d9257600080fd5b8335612d9d81612d2c565b92506020840135612dad81612d2c565b929592945050506040919091013590565b60008060408385031215612dd157600080fd5b50508035926020909101359150565b60008060408385031215612df357600080fd5b823591506020830135612e0581612d2c565b809150509250929050565b60008083601f840112612e2257600080fd5b5081356001600160401b03811115612e3957600080fd5b6020830191508360208260051b8501011115612e5457600080fd5b9250929050565b600080600060408486031215612e7057600080fd5b8335612e7b81612d2c565b925060208401356001600160401b03811115612e9657600080fd5b612ea286828701612e10565b9497909650939450505050565b60006101008251818552612ec582860182612cd4565b915050602083015115156020850152604083015160408501526060830151606085015260808301518482036080860152612eff8282612cd4565b60a0858101519087015260c0808601519087015260e0948501516001600160a01b03169490950193909352509192915050565b60208152815160208201526000602083015160606040840152805160e06080850152612f62610160850182612cd4565b90506020820151607f198583030160a0860152612f7f8282612cd4565b6040848101516001600160a01b0390811660c08981019190915260608088015160e08b015260808801516101008b015260a08801516101208b015296015116610140880152870151868203601f1901948701949094529150610c3a90508183612eaf565b600060208284031215612ff557600080fd5b81356124c881612d2c565b60006020828403121561301257600080fd5b81356001600160401b0381111561302857600080fd5b820161010081850312156124c857600080fd5b8015158114610b6257600080fd5b8035612d4c8161303b565b6000806040838503121561306757600080fd5b823561307281612d2c565b91506020830135612e058161303b565b634e487b7160e01b600052604160045260246000fd5b60405161010081016001600160401b03811182821017156130bb576130bb613082565b60405290565b60405160e081016001600160401b03811182821017156130bb576130bb613082565b60006001600160401b03808411156130fd576130fd613082565b604051601f8501601f19908116603f0116810190828211818310171561312557613125613082565b8160405280935085815286868601111561313e57600080fd5b858560208301376000602087830101525050509392505050565b6000806000806080858703121561316e57600080fd5b843561317981612d2c565b9350602085013561318981612d2c565b92506040850135915060608501356001600160401b038111156131ab57600080fd5b8501601f810187136131bc57600080fd5b6131cb878235602084016130e3565b91505092959194509250565b6000806000604084860312156131ec57600080fd5b8335925060208401356001600160401b03811115612e9657600080fd5b6000806040838503121561321c57600080fd5b823561322781612d2c565b91506020830135612e0581612d2c565b600082601f83011261324857600080fd5b6124c8838335602085016130e3565b6000610100828403121561326a57600080fd5b613272613098565b905081356001600160401b038082111561328b57600080fd5b61329785838601613237565b83526132a560208501613049565b6020840152604084013560408401526060840135606084015260808401359150808211156132d257600080fd5b506132df84828501613237565b60808301525060a082013560a082015260c082013560c082015261330560e08301612d41565b60e082015292915050565b6000806040838503121561332357600080fd5b82356001600160401b038082111561333a57600080fd5b9084019060e0828703121561334e57600080fd5b6133566130c1565b82358281111561336557600080fd5b61337188828601613237565b82525060208301358281111561338657600080fd5b61339288828601613237565b6020830152506133a460408401612d41565b6040820152606083013560608201526080830135608082015260a083013560a08201526133d360c08401612d41565b60c0820152935060208501359150808211156133ee57600080fd5b506133fb85828601613257565b9150509250929050565b600181811c9082168061341957607f821691505b60208210810361343957634e487b7160e01b600052602260045260246000fd5b50919050565b6020808252602e908201527f4552433732313a2063616c6c6572206973206e6f7420746f6b656e206f776e6560408201526d1c881b9bdc88185c1c1c9bdd995960921b606082015260800190565b634e487b7160e01b600052601160045260246000fd5b60008160001904831182151516156134bd576134bd61348d565b500290565b634e487b7160e01b600052601260045260246000fd5b6000826134e7576134e76134c2565b500490565b6000808335601e1984360301811261350357600080fd5b8301803591506001600160401b0382111561351d57600080fd5b602001915036819003821315612e5457600080fd5b601f821115610a0957600081815260208120601f850160051c810160208610156135595750805b601f850160051c820191505b8181101561357857828155600101613565565b505050505050565b6001600160401b0383111561359757613597613082565b6135ab836135a58354613405565b83613532565b6000601f8411600181146135df57600085156135c75750838201355b600019600387901b1c1916600186901b178355613639565b600083815260209020601f19861690835b8281101561361057868501358255602094850194600190920191016135f0565b508682101561362d5760001960f88860031b161c19848701351681555b505060018560011b0183555b5050505050565b600081356108328161303b565b6000813561083281612d2c565b61366482836134ec565b6001600160401b0381111561367b5761367b613082565b61368f816136898554613405565b85613532565b6000601f8211600181146136c357600083156136ab5750838201355b600019600385901b1c1916600184901b17855561371d565b600085815260209020601f19841690835b828110156136f457868501358255602094850194600190920191016136d4565b50848210156137115760001960f88660031b161c19848701351681555b505060018360011b0185555b5050505061374961373060208401613640565b6001830160ff1981541660ff8315151681178255505050565b604082013560028201556060820135600382015561376a60808301836134ec565b613778818360048601613580565b505060a0820135600582015560c08201356006820155610b1561379d60e0840161364d565b6007830180546001600160a01b0319166001600160a01b0392909216919091179055565b600081546137ce81613405565b600182811680156137e657600181146137f757613826565b60ff19841687528287019450613826565b8560005260208060002060005b8581101561381d5781548a820152908401908201613804565b50505082870194505b5050505092915050565b600061383c82856137c1565b835161384c818360208801612ca8565b01949350505050565b7f7b2273656c6c65725f6665655f62617369735f706f696e7473223a200000000081526000835161388d81601c850160208801612ca8565b731610113332b2afb932b1b4b834b2b73a111d101160611b601c9184019182015283516138c1816030840160208801612ca8565b61227d60f01b60309290910191820152603201949350505050565b7f646174613a6170706c69636174696f6e2f6a736f6e3b6261736536342c00000081526000825161391481601d850160208701612ca8565b91909101601d0192915050565b6000828210156139335761393361348d565b500390565b6000821982111561394b5761394b61348d565b500190565b60006020828403121561396257600080fd5b81356124c88161303b565b8183823760009101908152919050565b60006124c882846137c1565b60006001820161399b5761399b61348d565b5060010190565b60208082526032908201527f4552433732313a207472616e7366657220746f206e6f6e20455243373231526560408201527131b2b4bb32b91034b6b83632b6b2b73a32b960711b606082015260800190565b600082613a0357613a036134c2565b500690565b634e487b7160e01b600052603260045260246000fd5b600081613a2d57613a2d61348d565b506000190190565b7f416363657373436f6e74726f6c3a206163636f756e7420000000000000000000815260008351613a6d816017850160208801612ca8565b7001034b99036b4b9b9b4b733903937b6329607d1b6017918401918201528351613a9e816028840160208801612ca8565b01602801949350505050565b6001600160a01b0385811682528416602082015260408101839052608060608201819052600090613add90830184612cd4565b9695505050505050565b600060208284031215613af957600080fd5b81516124c881612c7556fe4142434445464748494a4b4c4d4e4f505152535455565758595a6162636465666768696a6b6c6d6e6f707172737475767778797a303132333435363738392b2fa49807205ce4d355092ef5a8a18f56e8913cf4a201fbe287825b095693c21775a26469706673582212206ea21ff25240df997aa180d7a28e6a40e3b45dee5328980a8524344a92d875d364736f6c634300080e0033",
  "linkReferences": {},
  "deployedLinkReferences": {}
}