{
  "_format": "hh-sol-artifact-1",
  "contractName": "BettingClub",
  "sourceName": "contracts/BettingClub.sol",
  "abi": [
    {
      "inputs": [
        {
          "internalType": "address",
          "name": "_address",
          "type": "address"
        }
      ],
      "stateMutability": "nonpayable",
      "type": "constructor"
    },
    {
      "anonymous": false,
      "inputs": [
        {
          "indexed": false,
          "internalType": "string",
          "name": "side",
          "type": "string"
        },
        {
          "indexed": false,
          "internalType": "string",
          "name": "game",
          "type": "string"
        },
        {
          "indexed": false,
          "internalType": "uint256",
          "name": "amount",
          "type": "uint256"
        },
        {
          "indexed": false,
          "internalType": "uint256",
          "name": "timestamp",
          "type": "uint256"
        }
      ],
      "name": "BetWinner",
      "type": "event"
    },
    {
      "anonymous": false,
      "inputs": [
        {
          "indexed": false,
          "internalType": "address",
          "name": "account",
          "type": "address"
        },
        {
          "indexed": false,
          "internalType": "string",
          "name": "side",
          "type": "string"
        },
        {
          "indexed": false,
          "internalType": "string",
          "name": "game",
          "type": "string"
        },
        {
          "indexed": false,
          "internalType": "uint256",
          "name": "amount",
          "type": "uint256"
        },
        {
          "indexed": false,
          "internalType": "uint256",
          "name": "timestamp",
          "type": "uint256"
        }
      ],
      "name": "NewBet",
      "type": "event"
    },
    {
      "anonymous": false,
      "inputs": [
        {
          "indexed": true,
          "internalType": "address",
          "name": "previousOwner",
          "type": "address"
        },
        {
          "indexed": true,
          "internalType": "address",
          "name": "newOwner",
          "type": "address"
        }
      ],
      "name": "OwnershipTransferred",
      "type": "event"
    },
    {
      "inputs": [
        {
          "internalType": "string",
          "name": "_side",
          "type": "string"
        },
        {
          "internalType": "string",
          "name": "_game",
          "type": "string"
        }
      ],
      "name": "bet",
      "outputs": [
        {
          "internalType": "bool",
          "name": "",
          "type": "bool"
        }
      ],
      "stateMutability": "payable",
      "type": "function"
    },
    {
      "inputs": [
        {
          "internalType": "uint256",
          "name": "",
          "type": "uint256"
        }
      ],
      "name": "bets",
      "outputs": [
        {
          "internalType": "address",
          "name": "account",
          "type": "address"
        },
        {
          "internalType": "string",
          "name": "side",
          "type": "string"
        },
        {
          "internalType": "string",
          "name": "game",
          "type": "string"
        },
        {
          "internalType": "uint256",
          "name": "amount",
          "type": "uint256"
        },
        {
          "internalType": "bool",
          "name": "isActive",
          "type": "bool"
        },
        {
          "internalType": "uint256",
          "name": "timestamp",
          "type": "uint256"
        }
      ],
      "stateMutability": "view",
      "type": "function"
    },
    {
      "inputs": [],
      "name": "getBets",
      "outputs": [
        {
          "components": [
            {
              "internalType": "address",
              "name": "account",
              "type": "address"
            },
            {
              "internalType": "string",
              "name": "side",
              "type": "string"
            },
            {
              "internalType": "string",
              "name": "game",
              "type": "string"
            },
            {
              "internalType": "uint256",
              "name": "amount",
              "type": "uint256"
            },
            {
              "internalType": "bool",
              "name": "isActive",
              "type": "bool"
            },
            {
              "internalType": "uint256",
              "name": "timestamp",
              "type": "uint256"
            }
          ],
          "internalType": "struct BettingClub.Bet[]",
          "name": "",
          "type": "tuple[]"
        }
      ],
      "stateMutability": "view",
      "type": "function"
    },
    {
      "inputs": [],
      "name": "getBetsArrayLength",
      "outputs": [
        {
          "internalType": "uint256",
          "name": "",
          "type": "uint256"
        }
      ],
      "stateMutability": "view",
      "type": "function"
    },
    {
      "inputs": [],
      "name": "getBucket",
      "outputs": [
        {
          "internalType": "uint256",
          "name": "",
          "type": "uint256"
        }
      ],
      "stateMutability": "view",
      "type": "function"
    },
    {
      "inputs": [
        {
          "internalType": "string",
          "name": "_side",
          "type": "string"
        },
        {
          "internalType": "string",
          "name": "_game",
          "type": "string"
        }
      ],
      "name": "getOdd",
      "outputs": [
        {
          "internalType": "uint256",
          "name": "",
          "type": "uint256"
        }
      ],
      "stateMutability": "view",
      "type": "function"
    },
    {
      "inputs": [
        {
          "internalType": "string",
          "name": "_side",
          "type": "string"
        },
        {
          "internalType": "string",
          "name": "_game",
          "type": "string"
        }
      ],
      "name": "getTotalBetsBySide",
      "outputs": [
        {
          "internalType": "uint256",
          "name": "totalWinners",
          "type": "uint256"
        },
        {
          "internalType": "uint256",
          "name": "totalAmount",
          "type": "uint256"
        }
      ],
      "stateMutability": "view",
      "type": "function"
    },
    {
      "inputs": [],
      "name": "isBetOpen",
      "outputs": [
        {
          "internalType": "bool",
          "name": "",
          "type": "bool"
        }
      ],
      "stateMutability": "view",
      "type": "function"
    },
    {
      "inputs": [],
      "name": "minBetAmount",
      "outputs": [
        {
          "internalType": "uint256",
          "name": "",
          "type": "uint256"
        }
      ],
      "stateMutability": "view",
      "type": "function"
    },
    {
      "inputs": [],
      "name": "owner",
      "outputs": [
        {
          "internalType": "address",
          "name": "",
          "type": "address"
        }
      ],
      "stateMutability": "view",
      "type": "function"
    },
    {
      "inputs": [],
      "name": "renounceOwnership",
      "outputs": [],
      "stateMutability": "nonpayable",
      "type": "function"
    },
    {
      "inputs": [
        {
          "internalType": "uint256",
          "name": "_value",
          "type": "uint256"
        }
      ],
      "name": "setMinBetAmount",
      "outputs": [],
      "stateMutability": "nonpayable",
      "type": "function"
    },
    {
      "inputs": [
        {
          "internalType": "string",
          "name": "_side",
          "type": "string"
        },
        {
          "internalType": "string",
          "name": "_game",
          "type": "string"
        }
      ],
      "name": "setWinner",
      "outputs": [
        {
          "internalType": "bool",
          "name": "",
          "type": "bool"
        }
      ],
      "stateMutability": "payable",
      "type": "function"
    },
    {
      "inputs": [],
      "name": "toggleBet",
      "outputs": [],
      "stateMutability": "nonpayable",
      "type": "function"
    },
    {
      "inputs": [
        {
          "internalType": "address",
          "name": "newOwner",
          "type": "address"
        }
      ],
      "name": "transferOwnership",
      "outputs": [],
      "stateMutability": "nonpayable",
      "type": "function"
    },
    {
      "inputs": [],
      "name": "withdraw",
      "outputs": [],
      "stateMutability": "payable",
      "type": "function"
    }
  ],
  "bytecode": "0x60806040526002805460ff19169055670de0b6b3a764000060035534801561002657600080fd5b506040516116ba3803806116ba833981016040819052610045916100c7565b61004e33610077565b60018055600580546001600160a01b0319166001600160a01b03929092169190911790556100f7565b600080546001600160a01b038381166001600160a01b0319831681178455604051919092169283917f8be0079c531659141344cd1fd0a4f28419497f9722a3daafe3b4186f6b6457e09190a35050565b6000602082840312156100d957600080fd5b81516001600160a01b03811681146100f057600080fd5b9392505050565b6115b4806101066000396000f3fe6080604052600436106100f35760003560e01c8063a0ebbae51161008a578063e0e2245711610059578063e0e2245714610282578063f2fde38b14610295578063f9692265146102b5578063fa968eea146102c857600080fd5b8063a0ebbae51461020c578063a6afd5fd14610221578063af7e8d1314610243578063dd585e771461025857600080fd5b80633f264fb9116100c65780633f264fb91461019c5780636c188593146101af578063715018a6146101cf5780638da5cb5b146101e457600080fd5b806306c6352b146100f857806313d13b981461013257806322af00fa146101605780633ccfd60b14610192575b600080fd5b34801561010457600080fd5b506101186101133660046110fb565b6102de565b604080519283526020830191909152015b60405180910390f35b34801561013e57600080fd5b5061015261014d3660046110fb565b610439565b604051908152602001610129565b34801561016c57600080fd5b5061018061017b36600461115f565b610470565b604051610129969594939291906111d4565b61019a6105d8565b005b3480156101a857600080fd5b5047610152565b3480156101bb57600080fd5b5061019a6101ca36600461115f565b61061d565b3480156101db57600080fd5b5061019a61062a565b3480156101f057600080fd5b506000546040516001600160a01b039091168152602001610129565b34801561021857600080fd5b50600454610152565b34801561022d57600080fd5b5061023661063e565b6040516101299190611229565b34801561024f57600080fd5b5061019a610800565b34801561026457600080fd5b506002546102729060ff1681565b6040519015158152602001610129565b6102726102903660046110fb565b61081c565b3480156102a157600080fd5b5061019a6102b03660046112e5565b610b11565b6102726102c33660046110fb565b610b87565b3480156102d457600080fd5b5061015260035481565b60008060005b60045481101561043157846040516020016102ff9190611315565b604051602081830303815290604052805190602001206004828154811061032857610328611331565b90600052602060002090600602016001016040516020016103499190611381565b604051602081830303815290604052805190602001201480156103da5750836040516020016103789190611315565b60405160208183030381529060405280519060200120600482815481106103a1576103a1611331565b90600052602060002090600602016002016040516020016103c29190611381565b60405160208183030381529060405280519060200120145b1561041f57600481815481106103f2576103f2611331565b9060005260206000209060060201600301548261040f9190611409565b915061041c600184611409565b92505b8061042981611421565b9150506102e4565b509250929050565b6000478161044785856102de565b915061045d9050670de0b6b3a76400008261143a565b610467908361143a565b95945050505050565b6004818154811061048057600080fd5b6000918252602090912060069091020180546001820180546001600160a01b039092169350906104af90611347565b80601f01602080910402602001604051908101604052809291908181526020018280546104db90611347565b80156105285780601f106104fd57610100808354040283529160200191610528565b820191906000526020600020905b81548152906001019060200180831161050b57829003601f168201915b50505050509080600201805461053d90611347565b80601f016020809104026020016040519081016040528092919081815260200182805461056990611347565b80156105b65780601f1061058b576101008083540402835291602001916105b6565b820191906000526020600020905b81548152906001019060200180831161059957829003601f168201915b50505050600383015460048401546005909401549293909260ff909116915086565b6105e0610f15565b600080546040516001600160a01b03909116914780156108fc02929091818181858888f1935050505015801561061a573d6000803e3d6000fd5b50565b610625610f15565b600355565b610632610f15565b61063c6000610f6f565b565b60606004805480602002602001604051908101604052809291908181526020016000905b828210156107f75760008481526020908190206040805160c081019091526006850290910180546001600160a01b0316825260018101805492939192918401916106ab90611347565b80601f01602080910402602001604051908101604052809291908181526020018280546106d790611347565b80156107245780601f106106f957610100808354040283529160200191610724565b820191906000526020600020905b81548152906001019060200180831161070757829003601f168201915b5050505050815260200160028201805461073d90611347565b80601f016020809104026020016040519081016040528092919081815260200182805461076990611347565b80156107b65780601f1061078b576101008083540402835291602001916107b6565b820191906000526020600020905b81548152906001019060200180831161079957829003601f168201915b50505091835250506003820154602080830191909152600483015460ff16151560408301526005909201546060909101529082526001929092019101610662565b50505050905090565b610808610f15565b6002805460ff19811660ff90911615179055565b60006002600154036108755760405162461bcd60e51b815260206004820152601f60248201527f5265656e7472616e637947756172643a207265656e7472616e742063616c6c0060448201526064015b60405180910390fd5b60026001556005546040516370a0823160e01b81523360048201526000916001600160a01b0316906370a0823190602401602060405180830381865afa1580156108c3573d6000803e3d6000fd5b505050506040513d601f19601f820116820180604052508101906108e7919061145c565b116109345760405162461bcd60e51b815260206004820152601760248201527f596f75206d7573742068617665206120736d6f6f6c6f73000000000000000000604482015260640161086c565b60025460ff166109785760405162461bcd60e51b815260206004820152600f60248201526e10995d1cc8185c994818db1bdcd959608a1b604482015260640161086c565b6003543410156109bc5760405162461bcd60e51b815260206004820152600f60248201526e135a5b8818995d081a5b9d985b1a59608a1b604482015260640161086c565b6040805160c08101825233815260208082018681529282018590523460608301526001608083018190524260a084015260048054918201815560005282517f8a35acfbc15ff81a39ae7d344fd709f28e8600b4aa8c65c6b64bfe7fe36bd19b600690920291820180546001600160a01b0319166001600160a01b0390921691909117815593518051939493610a7a937f8a35acfbc15ff81a39ae7d344fd709f28e8600b4aa8c65c6b64bfe7fe36bd19c909301929190910190610fbf565b5060408201518051610a96916002840191602090910190610fbf565b5060608201516003820155608082015160048201805460ff191691151591909117905560a0909101516005909101556040517f6a27fbcfcf19909f118caeaf9e4940f0b3c4b75d4ff061ae07b360d4a5b1a34190610afd9033908690819034904290611475565b60405180910390a150600180805592915050565b610b19610f15565b6001600160a01b038116610b7e5760405162461bcd60e51b815260206004820152602660248201527f4f776e61626c653a206e6577206f776e657220697320746865207a65726f206160448201526564647265737360d01b606482015260840161086c565b61061a81610f6f565b6000610b91610f15565b6002805460ff191690556000610ba784846102de565b9150506000610bb34790565b905060005b600454811015610f095785604051602001610bd39190611315565b6040516020818303038152906040528051906020012060048281548110610bfc57610bfc611331565b9060005260206000209060060201600101604051602001610c1d9190611381565b60405160208183030381529060405280519060200120148015610cae575084604051602001610c4c9190611315565b6040516020818303038152906040528051906020012060048281548110610c7557610c75611331565b9060005260206000209060060201600201604051602001610c969190611381565b60405160208183030381529060405280519060200120145b15610e495760048181548110610cc657610cc6611331565b600091825260209091206004600690920201015460ff16610d1e5760405162461bcd60e51b815260206004820152601260248201527147616d65206973206e6f742061637469766560701b604482015260640161086c565b6000610d2b60b48561143a565b60b460048481548110610d4057610d40611331565b906000526020600020906006020160030154610d5c919061143a565b610d679060646114c0565b610d71919061143a565b905060006064610d8183866114c0565b610d8b919061143a565b905060048381548110610da057610da0611331565b600091825260208220600690910201546040516001600160a01b039091169183156108fc02918491818181858888f19350505050158015610de5573d6000803e3d6000fd5b507fe02e3e40a6b891868c8a648abb867ca0242c04d3229f7823982f01e4c09e78138860048581548110610e1b57610e1b611331565b90600052602060002090600602016002018342604051610e3e94939291906114df565b60405180910390a150505b84604051602001610e5a9190611315565b6040516020818303038152906040528051906020012060048281548110610e8357610e83611331565b9060005260206000209060060201600201604051602001610ea49190611381565b6040516020818303038152906040528051906020012003610ef757600060048281548110610ed457610ed4611331565b60009182526020909120600690910201600401805460ff19169115159190911790555b80610f0181611421565b915050610bb8565b50600195945050505050565b6000546001600160a01b0316331461063c5760405162461bcd60e51b815260206004820181905260248201527f4f776e61626c653a2063616c6c6572206973206e6f7420746865206f776e6572604482015260640161086c565b600080546001600160a01b038381166001600160a01b0319831681178455604051919092169283917f8be0079c531659141344cd1fd0a4f28419497f9722a3daafe3b4186f6b6457e09190a35050565b828054610fcb90611347565b90600052602060002090601f016020900481019282610fed5760008555611033565b82601f1061100657805160ff1916838001178555611033565b82800160010185558215611033579182015b82811115611033578251825591602001919060010190611018565b5061103f929150611043565b5090565b5b8082111561103f5760008155600101611044565b634e487b7160e01b600052604160045260246000fd5b600082601f83011261107f57600080fd5b813567ffffffffffffffff8082111561109a5761109a611058565b604051601f8301601f19908116603f011681019082821181831017156110c2576110c2611058565b816040528381528660208588010111156110db57600080fd5b836020870160208301376000602085830101528094505050505092915050565b6000806040838503121561110e57600080fd5b823567ffffffffffffffff8082111561112657600080fd5b6111328683870161106e565b9350602085013591508082111561114857600080fd5b506111558582860161106e565b9150509250929050565b60006020828403121561117157600080fd5b5035919050565b60005b8381101561119357818101518382015260200161117b565b838111156111a2576000848401525b50505050565b600081518084526111c0816020860160208601611178565b601f01601f19169290920160200192915050565b6001600160a01b038716815260c0602082018190526000906111f8908301886111a8565b828103604084015261120a81886111a8565b60608401969096525050911515608083015260a0909101529392505050565b60006020808301818452808551808352604092508286019150828160051b87010184880160005b838110156112d757888303603f19018552815180516001600160a01b031684528781015160c089860181905290611289828701826111a8565b91505087820151858203898701526112a182826111a8565b6060848101519088015260808085015115159088015260a093840151939096019290925250509386019390860190600101611250565b509098975050505050505050565b6000602082840312156112f757600080fd5b81356001600160a01b038116811461130e57600080fd5b9392505050565b60008251611327818460208701611178565b9190910192915050565b634e487b7160e01b600052603260045260246000fd5b600181811c9082168061135b57607f821691505b60208210810361137b57634e487b7160e01b600052602260045260246000fd5b50919050565b600080835461138f81611347565b600182811680156113a757600181146113b8576113e7565b60ff198416875282870194506113e7565b8760005260208060002060005b858110156113de5781548a8201529084019082016113c5565b50505082870194505b50929695505050505050565b634e487b7160e01b600052601160045260246000fd5b6000821982111561141c5761141c6113f3565b500190565b600060018201611433576114336113f3565b5060010190565b60008261145757634e487b7160e01b600052601260045260246000fd5b500490565b60006020828403121561146e57600080fd5b5051919050565b6001600160a01b038616815260a060208201819052600090611499908301876111a8565b82810360408401526114ab81876111a8565b60608401959095525050608001529392505050565b60008160001904831182151516156114da576114da6113f3565b500290565b6080815260006114f260808301876111a8565b6020838203818501526000875461150881611347565b80855260018281168015611523576001811461153757611565565b60ff19841687870152604087019450611565565b8b6000528560002060005b8481101561155d578154898201890152908301908701611542565b880187019550505b505050506040850196909652505050606001529291505056fea2646970667358221220f54afda48c20e84ec8fd7ca989d151477c81b96f1e78f208c5256334b3ff8b4c64736f6c634300080e0033",
  "linkReferences": {},
  "deployedLinkReferences": {}
}