{
  "_format": "hh-sol-artifact-1",
  "contractName": "BettingClub",
  "sourceName": "contracts/BettingClub.sol",
  "abi": [
    {
      "inputs": [
        {
          "internalType": "address",
          "name": "_address",
          "type": "address"
        }
      ],
      "stateMutability": "nonpayable",
      "type": "constructor"
    },
    {
      "anonymous": false,
      "inputs": [
        {
          "indexed": false,
          "internalType": "string",
          "name": "side",
          "type": "string"
        },
        {
          "indexed": false,
          "internalType": "string",
          "name": "game",
          "type": "string"
        },
        {
          "indexed": false,
          "internalType": "uint256",
          "name": "amount",
          "type": "uint256"
        },
        {
          "indexed": false,
          "internalType": "uint256",
          "name": "timestamp",
          "type": "uint256"
        }
      ],
      "name": "BetWinner",
      "type": "event"
    },
    {
      "anonymous": false,
      "inputs": [
        {
          "indexed": false,
          "internalType": "address",
          "name": "account",
          "type": "address"
        },
        {
          "indexed": false,
          "internalType": "string",
          "name": "side",
          "type": "string"
        },
        {
          "indexed": false,
          "internalType": "string",
          "name": "game",
          "type": "string"
        },
        {
          "indexed": false,
          "internalType": "uint256",
          "name": "amount",
          "type": "uint256"
        },
        {
          "indexed": false,
          "internalType": "uint256",
          "name": "timestamp",
          "type": "uint256"
        }
      ],
      "name": "NewBet",
      "type": "event"
    },
    {
      "anonymous": false,
      "inputs": [
        {
          "indexed": true,
          "internalType": "address",
          "name": "previousOwner",
          "type": "address"
        },
        {
          "indexed": true,
          "internalType": "address",
          "name": "newOwner",
          "type": "address"
        }
      ],
      "name": "OwnershipTransferred",
      "type": "event"
    },
    {
      "inputs": [
        {
          "internalType": "string",
          "name": "_side",
          "type": "string"
        },
        {
          "internalType": "string",
          "name": "_game",
          "type": "string"
        }
      ],
      "name": "bet",
      "outputs": [
        {
          "internalType": "bool",
          "name": "",
          "type": "bool"
        }
      ],
      "stateMutability": "payable",
      "type": "function"
    },
    {
      "inputs": [
        {
          "internalType": "uint256",
          "name": "",
          "type": "uint256"
        }
      ],
      "name": "bets",
      "outputs": [
        {
          "internalType": "address",
          "name": "account",
          "type": "address"
        },
        {
          "internalType": "string",
          "name": "side",
          "type": "string"
        },
        {
          "internalType": "string",
          "name": "game",
          "type": "string"
        },
        {
          "internalType": "uint256",
          "name": "amount",
          "type": "uint256"
        },
        {
          "internalType": "bool",
          "name": "isActive",
          "type": "bool"
        },
        {
          "internalType": "uint256",
          "name": "timestamp",
          "type": "uint256"
        }
      ],
      "stateMutability": "view",
      "type": "function"
    },
    {
      "inputs": [],
      "name": "getBucket",
      "outputs": [
        {
          "internalType": "uint256",
          "name": "",
          "type": "uint256"
        }
      ],
      "stateMutability": "view",
      "type": "function"
    },
    {
      "inputs": [
        {
          "internalType": "string",
          "name": "_side",
          "type": "string"
        },
        {
          "internalType": "string",
          "name": "_game",
          "type": "string"
        }
      ],
      "name": "getTotalBetsBySide",
      "outputs": [
        {
          "internalType": "uint256",
          "name": "totalWinners",
          "type": "uint256"
        },
        {
          "internalType": "uint256",
          "name": "totalAmount",
          "type": "uint256"
        }
      ],
      "stateMutability": "view",
      "type": "function"
    },
    {
      "inputs": [],
      "name": "isBetOpen",
      "outputs": [
        {
          "internalType": "bool",
          "name": "",
          "type": "bool"
        }
      ],
      "stateMutability": "view",
      "type": "function"
    },
    {
      "inputs": [],
      "name": "minBetAmount",
      "outputs": [
        {
          "internalType": "uint256",
          "name": "",
          "type": "uint256"
        }
      ],
      "stateMutability": "view",
      "type": "function"
    },
    {
      "inputs": [],
      "name": "owner",
      "outputs": [
        {
          "internalType": "address",
          "name": "",
          "type": "address"
        }
      ],
      "stateMutability": "view",
      "type": "function"
    },
    {
      "inputs": [],
      "name": "renounceOwnership",
      "outputs": [],
      "stateMutability": "nonpayable",
      "type": "function"
    },
    {
      "inputs": [
        {
          "internalType": "uint256",
          "name": "_value",
          "type": "uint256"
        }
      ],
      "name": "setMinBetAmount",
      "outputs": [],
      "stateMutability": "nonpayable",
      "type": "function"
    },
    {
      "inputs": [
        {
          "internalType": "string",
          "name": "_side",
          "type": "string"
        },
        {
          "internalType": "string",
          "name": "_game",
          "type": "string"
        }
      ],
      "name": "setWinner",
      "outputs": [
        {
          "internalType": "bool",
          "name": "",
          "type": "bool"
        }
      ],
      "stateMutability": "payable",
      "type": "function"
    },
    {
      "inputs": [],
      "name": "toggleBet",
      "outputs": [],
      "stateMutability": "nonpayable",
      "type": "function"
    },
    {
      "inputs": [
        {
          "internalType": "address",
          "name": "newOwner",
          "type": "address"
        }
      ],
      "name": "transferOwnership",
      "outputs": [],
      "stateMutability": "nonpayable",
      "type": "function"
    },
    {
      "inputs": [],
      "name": "withdraw",
      "outputs": [],
      "stateMutability": "payable",
      "type": "function"
    }
  ],
  "bytecode": "0x60806040526002805460ff19169055670de0b6b3a764000060035534801561002657600080fd5b50604051611379380380611379833981016040819052610045916100c7565b61004e33610077565b60018055600580546001600160a01b0319166001600160a01b03929092169190911790556100f7565b600080546001600160a01b038381166001600160a01b0319831681178455604051919092169283917f8be0079c531659141344cd1fd0a4f28419497f9722a3daafe3b4186f6b6457e09190a35050565b6000602082840312156100d957600080fd5b81516001600160a01b03811681146100f057600080fd5b9392505050565b611273806101066000396000f3fe6080604052600436106100c25760003560e01c80638da5cb5b1161007f578063e0e2245711610059578063e0e22457146101f6578063f2fde38b14610209578063f969226514610229578063fa968eea1461023c57600080fd5b80638da5cb5b1461018f578063af7e8d13146101b7578063dd585e77146101cc57600080fd5b806306c6352b146100c757806322af00fa146101015780633ccfd60b146101335780633f264fb91461013d5780636c1885931461015a578063715018a61461017a575b600080fd5b3480156100d357600080fd5b506100e76100e2366004610e76565b610252565b604080519283526020830191909152015b60405180910390f35b34801561010d57600080fd5b5061012161011c366004610eda565b6103ad565b6040516100f896959493929190610f4f565b61013b610515565b005b34801561014957600080fd5b50475b6040519081526020016100f8565b34801561016657600080fd5b5061013b610175366004610eda565b61055a565b34801561018657600080fd5b5061013b610567565b34801561019b57600080fd5b506000546040516001600160a01b0390911681526020016100f8565b3480156101c357600080fd5b5061013b61057b565b3480156101d857600080fd5b506002546101e69060ff1681565b60405190151581526020016100f8565b6101e6610204366004610e76565b610597565b34801561021557600080fd5b5061013b610224366004610fa4565b61088c565b6101e6610237366004610e76565b610902565b34801561024857600080fd5b5061014c60035481565b60008060005b6004548110156103a557846040516020016102739190610fd4565b604051602081830303815290604052805190602001206004828154811061029c5761029c610ff0565b90600052602060002090600602016001016040516020016102bd9190611040565b6040516020818303038152906040528051906020012014801561034e5750836040516020016102ec9190610fd4565b604051602081830303815290604052805190602001206004828154811061031557610315610ff0565b90600052602060002090600602016002016040516020016103369190611040565b60405160208183030381529060405280519060200120145b15610393576004818154811061036657610366610ff0565b9060005260206000209060060201600301548261038391906110c8565b91506103906001846110c8565b92505b8061039d816110e0565b915050610258565b509250929050565b600481815481106103bd57600080fd5b6000918252602090912060069091020180546001820180546001600160a01b039092169350906103ec90611006565b80601f016020809104026020016040519081016040528092919081815260200182805461041890611006565b80156104655780601f1061043a57610100808354040283529160200191610465565b820191906000526020600020905b81548152906001019060200180831161044857829003601f168201915b50505050509080600201805461047a90611006565b80601f01602080910402602001604051908101604052809291908181526020018280546104a690611006565b80156104f35780601f106104c8576101008083540402835291602001916104f3565b820191906000526020600020905b8154815290600101906020018083116104d657829003601f168201915b50505050600383015460048401546005909401549293909260ff909116915086565b61051d610c90565b600080546040516001600160a01b03909116914780156108fc02929091818181858888f19350505050158015610557573d6000803e3d6000fd5b50565b610562610c90565b600355565b61056f610c90565b6105796000610cea565b565b610583610c90565b6002805460ff19811660ff90911615179055565b60006002600154036105f05760405162461bcd60e51b815260206004820152601f60248201527f5265656e7472616e637947756172643a207265656e7472616e742063616c6c0060448201526064015b60405180910390fd5b60026001556005546040516370a0823160e01b81523360048201526000916001600160a01b0316906370a0823190602401602060405180830381865afa15801561063e573d6000803e3d6000fd5b505050506040513d601f19601f8201168201806040525081019061066291906110f9565b116106af5760405162461bcd60e51b815260206004820152601760248201527f596f75206d7573742068617665206120736d6f6f6c6f7300000000000000000060448201526064016105e7565b60025460ff166106f35760405162461bcd60e51b815260206004820152600f60248201526e10995d1cc8185c994818db1bdcd959608a1b60448201526064016105e7565b6003543410156107375760405162461bcd60e51b815260206004820152600f60248201526e135a5b8818995d081a5b9d985b1a59608a1b60448201526064016105e7565b6040805160c08101825233815260208082018681529282018590523460608301526001608083018190524260a084015260048054918201815560005282517f8a35acfbc15ff81a39ae7d344fd709f28e8600b4aa8c65c6b64bfe7fe36bd19b600690920291820180546001600160a01b0319166001600160a01b03909216919091178155935180519394936107f5937f8a35acfbc15ff81a39ae7d344fd709f28e8600b4aa8c65c6b64bfe7fe36bd19c909301929190910190610d3a565b5060408201518051610811916002840191602090910190610d3a565b5060608201516003820155608082015160048201805460ff191691151591909117905560a0909101516005909101556040517f6a27fbcfcf19909f118caeaf9e4940f0b3c4b75d4ff061ae07b360d4a5b1a341906108789033908690819034904290611112565b60405180910390a150600180805592915050565b610894610c90565b6001600160a01b0381166108f95760405162461bcd60e51b815260206004820152602660248201527f4f776e61626c653a206e6577206f776e657220697320746865207a65726f206160448201526564647265737360d01b60648201526084016105e7565b61055781610cea565b600061090c610c90565b6002805460ff1916905560006109228484610252565b915050600061092e4790565b905060005b600454811015610c84578560405160200161094e9190610fd4565b604051602081830303815290604052805190602001206004828154811061097757610977610ff0565b90600052602060002090600602016001016040516020016109989190611040565b60405160208183030381529060405280519060200120148015610a295750846040516020016109c79190610fd4565b60405160208183030381529060405280519060200120600482815481106109f0576109f0610ff0565b9060005260206000209060060201600201604051602001610a119190611040565b60405160208183030381529060405280519060200120145b15610bc45760048181548110610a4157610a41610ff0565b600091825260209091206004600690920201015460ff16610a995760405162461bcd60e51b815260206004820152601260248201527147616d65206973206e6f742061637469766560701b60448201526064016105e7565b6000610aa660b48561115d565b60b460048481548110610abb57610abb610ff0565b906000526020600020906006020160030154610ad7919061115d565b610ae290606461117f565b610aec919061115d565b905060006064610afc838661117f565b610b06919061115d565b905060048381548110610b1b57610b1b610ff0565b600091825260208220600690910201546040516001600160a01b039091169183156108fc02918491818181858888f19350505050158015610b60573d6000803e3d6000fd5b507fe02e3e40a6b891868c8a648abb867ca0242c04d3229f7823982f01e4c09e78138860048581548110610b9657610b96610ff0565b90600052602060002090600602016002018342604051610bb9949392919061119e565b60405180910390a150505b84604051602001610bd59190610fd4565b6040516020818303038152906040528051906020012060048281548110610bfe57610bfe610ff0565b9060005260206000209060060201600201604051602001610c1f9190611040565b6040516020818303038152906040528051906020012003610c7257600060048281548110610c4f57610c4f610ff0565b60009182526020909120600690910201600401805460ff19169115159190911790555b80610c7c816110e0565b915050610933565b50600195945050505050565b6000546001600160a01b031633146105795760405162461bcd60e51b815260206004820181905260248201527f4f776e61626c653a2063616c6c6572206973206e6f7420746865206f776e657260448201526064016105e7565b600080546001600160a01b038381166001600160a01b0319831681178455604051919092169283917f8be0079c531659141344cd1fd0a4f28419497f9722a3daafe3b4186f6b6457e09190a35050565b828054610d4690611006565b90600052602060002090601f016020900481019282610d685760008555610dae565b82601f10610d8157805160ff1916838001178555610dae565b82800160010185558215610dae579182015b82811115610dae578251825591602001919060010190610d93565b50610dba929150610dbe565b5090565b5b80821115610dba5760008155600101610dbf565b634e487b7160e01b600052604160045260246000fd5b600082601f830112610dfa57600080fd5b813567ffffffffffffffff80821115610e1557610e15610dd3565b604051601f8301601f19908116603f01168101908282118183101715610e3d57610e3d610dd3565b81604052838152866020858801011115610e5657600080fd5b836020870160208301376000602085830101528094505050505092915050565b60008060408385031215610e8957600080fd5b823567ffffffffffffffff80821115610ea157600080fd5b610ead86838701610de9565b93506020850135915080821115610ec357600080fd5b50610ed085828601610de9565b9150509250929050565b600060208284031215610eec57600080fd5b5035919050565b60005b83811015610f0e578181015183820152602001610ef6565b83811115610f1d576000848401525b50505050565b60008151808452610f3b816020860160208601610ef3565b601f01601f19169290920160200192915050565b6001600160a01b038716815260c060208201819052600090610f7390830188610f23565b8281036040840152610f858188610f23565b60608401969096525050911515608083015260a0909101529392505050565b600060208284031215610fb657600080fd5b81356001600160a01b0381168114610fcd57600080fd5b9392505050565b60008251610fe6818460208701610ef3565b9190910192915050565b634e487b7160e01b600052603260045260246000fd5b600181811c9082168061101a57607f821691505b60208210810361103a57634e487b7160e01b600052602260045260246000fd5b50919050565b600080835461104e81611006565b600182811680156110665760018114611077576110a6565b60ff198416875282870194506110a6565b8760005260208060002060005b8581101561109d5781548a820152908401908201611084565b50505082870194505b50929695505050505050565b634e487b7160e01b600052601160045260246000fd5b600082198211156110db576110db6110b2565b500190565b6000600182016110f2576110f26110b2565b5060010190565b60006020828403121561110b57600080fd5b5051919050565b6001600160a01b038616815260a06020820181905260009061113690830187610f23565b82810360408401526111488187610f23565b60608401959095525050608001529392505050565b60008261117a57634e487b7160e01b600052601260045260246000fd5b500490565b6000816000190483118215151615611199576111996110b2565b500290565b6080815260006111b16080830187610f23565b602083820381850152600087546111c781611006565b808552600182811680156111e257600181146111f657611224565b60ff19841687870152604087019450611224565b8b6000528560002060005b8481101561121c578154898201890152908301908701611201565b880187019550505b505050506040850196909652505050606001529291505056fea264697066735822122057b07057ab35c286c3eec1cccb72904ef039b8b6f70b0051414036fb70383fe864736f6c634300080e0033",
  "linkReferences": {},
  "deployedLinkReferences": {}
}