{
  "_format": "hh-sol-artifact-1",
  "contractName": "BettingClub",
  "sourceName": "contracts/BettingClub.sol",
  "abi": [
    {
      "inputs": [
        {
          "internalType": "address",
          "name": "_address",
          "type": "address"
        }
      ],
      "stateMutability": "nonpayable",
      "type": "constructor"
    },
    {
      "anonymous": false,
      "inputs": [
        {
          "indexed": false,
          "internalType": "string",
          "name": "side",
          "type": "string"
        },
        {
          "indexed": false,
          "internalType": "string",
          "name": "game",
          "type": "string"
        },
        {
          "indexed": false,
          "internalType": "uint256",
          "name": "amount",
          "type": "uint256"
        },
        {
          "indexed": false,
          "internalType": "uint256",
          "name": "timestamp",
          "type": "uint256"
        }
      ],
      "name": "BetWinner",
      "type": "event"
    },
    {
      "anonymous": false,
      "inputs": [
        {
          "indexed": false,
          "internalType": "address",
          "name": "account",
          "type": "address"
        },
        {
          "indexed": false,
          "internalType": "string",
          "name": "side",
          "type": "string"
        },
        {
          "indexed": false,
          "internalType": "string",
          "name": "game",
          "type": "string"
        },
        {
          "indexed": false,
          "internalType": "uint256",
          "name": "amount",
          "type": "uint256"
        },
        {
          "indexed": false,
          "internalType": "uint256",
          "name": "timestamp",
          "type": "uint256"
        }
      ],
      "name": "NewBet",
      "type": "event"
    },
    {
      "anonymous": false,
      "inputs": [
        {
          "indexed": true,
          "internalType": "address",
          "name": "previousOwner",
          "type": "address"
        },
        {
          "indexed": true,
          "internalType": "address",
          "name": "newOwner",
          "type": "address"
        }
      ],
      "name": "OwnershipTransferred",
      "type": "event"
    },
    {
      "inputs": [
        {
          "internalType": "string",
          "name": "_side",
          "type": "string"
        },
        {
          "internalType": "string",
          "name": "_game",
          "type": "string"
        }
      ],
      "name": "bet",
      "outputs": [
        {
          "internalType": "bool",
          "name": "",
          "type": "bool"
        }
      ],
      "stateMutability": "payable",
      "type": "function"
    },
    {
      "inputs": [
        {
          "internalType": "uint256",
          "name": "",
          "type": "uint256"
        }
      ],
      "name": "bets",
      "outputs": [
        {
          "internalType": "address",
          "name": "account",
          "type": "address"
        },
        {
          "internalType": "string",
          "name": "side",
          "type": "string"
        },
        {
          "internalType": "string",
          "name": "game",
          "type": "string"
        },
        {
          "internalType": "uint256",
          "name": "amount",
          "type": "uint256"
        },
        {
          "internalType": "bool",
          "name": "isActive",
          "type": "bool"
        },
        {
          "internalType": "uint256",
          "name": "timestamp",
          "type": "uint256"
        }
      ],
      "stateMutability": "view",
      "type": "function"
    },
    {
      "inputs": [],
      "name": "getBucket",
      "outputs": [
        {
          "internalType": "uint256",
          "name": "",
          "type": "uint256"
        }
      ],
      "stateMutability": "view",
      "type": "function"
    },
    {
      "inputs": [
        {
          "internalType": "string",
          "name": "_side",
          "type": "string"
        },
        {
          "internalType": "string",
          "name": "_game",
          "type": "string"
        }
      ],
      "name": "getTotalBetsBySide",
      "outputs": [
        {
          "internalType": "uint256",
          "name": "totalWinners",
          "type": "uint256"
        },
        {
          "internalType": "uint256",
          "name": "totalAmount",
          "type": "uint256"
        }
      ],
      "stateMutability": "view",
      "type": "function"
    },
    {
      "inputs": [],
      "name": "isBetOpen",
      "outputs": [
        {
          "internalType": "bool",
          "name": "",
          "type": "bool"
        }
      ],
      "stateMutability": "view",
      "type": "function"
    },
    {
      "inputs": [],
      "name": "minBetAmount",
      "outputs": [
        {
          "internalType": "uint256",
          "name": "",
          "type": "uint256"
        }
      ],
      "stateMutability": "view",
      "type": "function"
    },
    {
      "inputs": [],
      "name": "owner",
      "outputs": [
        {
          "internalType": "address",
          "name": "",
          "type": "address"
        }
      ],
      "stateMutability": "view",
      "type": "function"
    },
    {
      "inputs": [],
      "name": "renounceOwnership",
      "outputs": [],
      "stateMutability": "nonpayable",
      "type": "function"
    },
    {
      "inputs": [
        {
          "internalType": "uint256",
          "name": "_value",
          "type": "uint256"
        }
      ],
      "name": "setMinBetAmount",
      "outputs": [],
      "stateMutability": "nonpayable",
      "type": "function"
    },
    {
      "inputs": [
        {
          "internalType": "string",
          "name": "_side",
          "type": "string"
        },
        {
          "internalType": "string",
          "name": "_game",
          "type": "string"
        }
      ],
      "name": "setWinner",
      "outputs": [
        {
          "internalType": "bool",
          "name": "",
          "type": "bool"
        }
      ],
      "stateMutability": "payable",
      "type": "function"
    },
    {
      "inputs": [],
      "name": "toggleBet",
      "outputs": [],
      "stateMutability": "nonpayable",
      "type": "function"
    },
    {
      "inputs": [
        {
          "internalType": "address",
          "name": "newOwner",
          "type": "address"
        }
      ],
      "name": "transferOwnership",
      "outputs": [],
      "stateMutability": "nonpayable",
      "type": "function"
    }
  ],
  "bytecode": "0x60806040526002805460ff19169055670de0b6b3a764000060035534801561002657600080fd5b5060405161129d38038061129d833981016040819052610045916100c7565b61004e33610077565b60018055600580546001600160a01b0319166001600160a01b03929092169190911790556100f7565b600080546001600160a01b038381166001600160a01b0319831681178455604051919092169283917f8be0079c531659141344cd1fd0a4f28419497f9722a3daafe3b4186f6b6457e09190a35050565b6000602082840312156100d957600080fd5b81516001600160a01b03811681146100f057600080fd5b9392505050565b611197806101066000396000f3fe6080604052600436106100a75760003560e01c8063af7e8d1311610064578063af7e8d1314610194578063dd585e77146101a9578063e0e22457146101d3578063f2fde38b146101e6578063f969226514610206578063fa968eea1461021957600080fd5b806306c6352b146100ac57806322af00fa146100e65780633f264fb9146101185780636c18859314610135578063715018a6146101575780638da5cb5b1461016c575b600080fd5b3480156100b857600080fd5b506100cc6100c7366004610d9a565b61022f565b604080519283526020830191909152015b60405180910390f35b3480156100f257600080fd5b50610106610101366004610dfe565b61038a565b6040516100dd96959493929190610e73565b34801561012457600080fd5b50475b6040519081526020016100dd565b34801561014157600080fd5b50610155610150366004610dfe565b6104f2565b005b34801561016357600080fd5b506101556104ff565b34801561017857600080fd5b506000546040516001600160a01b0390911681526020016100dd565b3480156101a057600080fd5b50610155610513565b3480156101b557600080fd5b506002546101c39060ff1681565b60405190151581526020016100dd565b6101c36101e1366004610d9a565b61052f565b3480156101f257600080fd5b50610155610201366004610ec8565b610824565b6101c3610214366004610d9a565b61089d565b34801561022557600080fd5b5061012760035481565b60008060005b60045481101561038257846040516020016102509190610ef8565b604051602081830303815290604052805190602001206004828154811061027957610279610f14565b906000526020600020906006020160010160405160200161029a9190610f64565b6040516020818303038152906040528051906020012014801561032b5750836040516020016102c99190610ef8565b60405160208183030381529060405280519060200120600482815481106102f2576102f2610f14565b90600052602060002090600602016002016040516020016103139190610f64565b60405160208183030381529060405280519060200120145b15610370576004818154811061034357610343610f14565b906000526020600020906006020160030154826103609190610fec565b915061036d600184610fec565b92505b8061037a81611004565b915050610235565b509250929050565b6004818154811061039a57600080fd5b6000918252602090912060069091020180546001820180546001600160a01b039092169350906103c990610f2a565b80601f01602080910402602001604051908101604052809291908181526020018280546103f590610f2a565b80156104425780601f1061041757610100808354040283529160200191610442565b820191906000526020600020905b81548152906001019060200180831161042557829003601f168201915b50505050509080600201805461045790610f2a565b80601f016020809104026020016040519081016040528092919081815260200182805461048390610f2a565b80156104d05780601f106104a5576101008083540402835291602001916104d0565b820191906000526020600020905b8154815290600101906020018083116104b357829003601f168201915b50505050600383015460048401546005909401549293909260ff909116915086565b6104fa610bb4565b600355565b610507610bb4565b6105116000610c0e565b565b61051b610bb4565b6002805460ff19811660ff90911615179055565b60006002600154036105885760405162461bcd60e51b815260206004820152601f60248201527f5265656e7472616e637947756172643a207265656e7472616e742063616c6c0060448201526064015b60405180910390fd5b60026001556005546040516370a0823160e01b81523360048201526000916001600160a01b0316906370a0823190602401602060405180830381865afa1580156105d6573d6000803e3d6000fd5b505050506040513d601f19601f820116820180604052508101906105fa919061101d565b116106475760405162461bcd60e51b815260206004820152601760248201527f596f75206d7573742068617665206120736d6f6f6c6f73000000000000000000604482015260640161057f565b60025460ff1661068b5760405162461bcd60e51b815260206004820152600f60248201526e10995d1cc8185c994818db1bdcd959608a1b604482015260640161057f565b6003543410156106cf5760405162461bcd60e51b815260206004820152600f60248201526e135a5b8818995d081a5b9d985b1a59608a1b604482015260640161057f565b6040805160c08101825233815260208082018681529282018590523460608301526001608083018190524260a084015260048054918201815560005282517f8a35acfbc15ff81a39ae7d344fd709f28e8600b4aa8c65c6b64bfe7fe36bd19b600690920291820180546001600160a01b0319166001600160a01b039092169190911781559351805193949361078d937f8a35acfbc15ff81a39ae7d344fd709f28e8600b4aa8c65c6b64bfe7fe36bd19c909301929190910190610c5e565b50604082015180516107a9916002840191602090910190610c5e565b5060608201516003820155608082015160048201805460ff191691151591909117905560a0909101516005909101556040517f6a27fbcfcf19909f118caeaf9e4940f0b3c4b75d4ff061ae07b360d4a5b1a341906108109033908690819034904290611036565b60405180910390a150600180805592915050565b61082c610bb4565b6001600160a01b0381166108915760405162461bcd60e51b815260206004820152602660248201527f4f776e61626c653a206e6577206f776e657220697320746865207a65726f206160448201526564647265737360d01b606482015260840161057f565b61089a81610c0e565b50565b60006108a7610bb4565b6002805460ff1916905560006108bd848461022f565b91505060006108c94790565b905060005b600454811015610ba857856040516020016108e99190610ef8565b604051602081830303815290604052805190602001206004828154811061091257610912610f14565b90600052602060002090600602016001016040516020016109339190610f64565b604051602081830303815290604052805190602001201480156109c45750846040516020016109629190610ef8565b604051602081830303815290604052805190602001206004828154811061098b5761098b610f14565b90600052602060002090600602016002016040516020016109ac9190610f64565b60405160208183030381529060405280519060200120145b15610b9657600481815481106109dc576109dc610f14565b600091825260209091206004600690920201015460ff16610a345760405162461bcd60e51b815260206004820152601260248201527147616d65206973206e6f742061637469766560701b604482015260640161057f565b6000610a4160b485611081565b60b460048481548110610a5657610a56610f14565b906000526020600020906006020160030154610a729190611081565b610a7d9060646110a3565b610a879190611081565b905060006064610a9783866110a3565b610aa19190611081565b905060048381548110610ab657610ab6610f14565b600091825260208220600690910201546040516001600160a01b039091169183156108fc02918491818181858888f19350505050158015610afb573d6000803e3d6000fd5b507fe02e3e40a6b891868c8a648abb867ca0242c04d3229f7823982f01e4c09e78138860048581548110610b3157610b31610f14565b90600052602060002090600602016002018342604051610b5494939291906110c2565b60405180910390a1600060048481548110610b7157610b71610f14565b60009182526020909120600690910201600401805460ff191691151591909117905550505b80610ba081611004565b9150506108ce565b50600195945050505050565b6000546001600160a01b031633146105115760405162461bcd60e51b815260206004820181905260248201527f4f776e61626c653a2063616c6c6572206973206e6f7420746865206f776e6572604482015260640161057f565b600080546001600160a01b038381166001600160a01b0319831681178455604051919092169283917f8be0079c531659141344cd1fd0a4f28419497f9722a3daafe3b4186f6b6457e09190a35050565b828054610c6a90610f2a565b90600052602060002090601f016020900481019282610c8c5760008555610cd2565b82601f10610ca557805160ff1916838001178555610cd2565b82800160010185558215610cd2579182015b82811115610cd2578251825591602001919060010190610cb7565b50610cde929150610ce2565b5090565b5b80821115610cde5760008155600101610ce3565b634e487b7160e01b600052604160045260246000fd5b600082601f830112610d1e57600080fd5b813567ffffffffffffffff80821115610d3957610d39610cf7565b604051601f8301601f19908116603f01168101908282118183101715610d6157610d61610cf7565b81604052838152866020858801011115610d7a57600080fd5b836020870160208301376000602085830101528094505050505092915050565b60008060408385031215610dad57600080fd5b823567ffffffffffffffff80821115610dc557600080fd5b610dd186838701610d0d565b93506020850135915080821115610de757600080fd5b50610df485828601610d0d565b9150509250929050565b600060208284031215610e1057600080fd5b5035919050565b60005b83811015610e32578181015183820152602001610e1a565b83811115610e41576000848401525b50505050565b60008151808452610e5f816020860160208601610e17565b601f01601f19169290920160200192915050565b6001600160a01b038716815260c060208201819052600090610e9790830188610e47565b8281036040840152610ea98188610e47565b60608401969096525050911515608083015260a0909101529392505050565b600060208284031215610eda57600080fd5b81356001600160a01b0381168114610ef157600080fd5b9392505050565b60008251610f0a818460208701610e17565b9190910192915050565b634e487b7160e01b600052603260045260246000fd5b600181811c90821680610f3e57607f821691505b602082108103610f5e57634e487b7160e01b600052602260045260246000fd5b50919050565b6000808354610f7281610f2a565b60018281168015610f8a5760018114610f9b57610fca565b60ff19841687528287019450610fca565b8760005260208060002060005b85811015610fc15781548a820152908401908201610fa8565b50505082870194505b50929695505050505050565b634e487b7160e01b600052601160045260246000fd5b60008219821115610fff57610fff610fd6565b500190565b60006001820161101657611016610fd6565b5060010190565b60006020828403121561102f57600080fd5b5051919050565b6001600160a01b038616815260a06020820181905260009061105a90830187610e47565b828103604084015261106c8187610e47565b60608401959095525050608001529392505050565b60008261109e57634e487b7160e01b600052601260045260246000fd5b500490565b60008160001904831182151516156110bd576110bd610fd6565b500290565b6080815260006110d56080830187610e47565b602083820381850152600087546110eb81610f2a565b80855260018281168015611106576001811461111a57611148565b60ff19841687870152604087019450611148565b8b6000528560002060005b84811015611140578154898201890152908301908701611125565b880187019550505b505050506040850196909652505050606001529291505056fea2646970667358221220bb384bb570e03048c524694cf7a180f9be6a592527d569e996ca0dd33129c04064736f6c634300080e0033",
  "linkReferences": {},
  "deployedLinkReferences": {}
}